:100000000C94E7010C941F020C941F020C945A1BD1
:100010000C941F020C941F020C941F020C941F02DC
:100020000C941F020C941F020C9481220C945523F3
:100030000C94621D0C941F020C941F020C941F025E
:100040000C941F020C941F020C941F020C941F02AC
:100050000C941F020C94041E0C941F020C941F029B
:100060000C941F020C941F020C941F020C941F028C
:100070000C941F020C941F020C941F020C941F027C
:100080000C941F020C941F020C941F020C941F026C
:100090000C941F020C941F020C941F020C941F025C
:1000A0000C941F020C941F020C941F0229001E00C6
:1000B0001F002000210022002B0014001A0008005D
:1000C00015001700E00004001600070009000A00F0
:1000D000E1001D001B0006001900050000000000E3
:1000E000E30001512C002F024C00270026002500C0
:1000F000240023002A00130012000C0018001C002A
:10010000340033000F000E000D000B0028003800F3
:10011000370036001000110000000000E600025118
:100120002C0030023A003B003C003D003E003F0006
:1001300001000100010001000100010001000100B7
:1001400001000100010001000100010001000100A7
:100150000100010000000000010001000100010099
:1001600045004400430042004100400001000100FE
:100170000100010001000100010001004F005200D8
:1001800051005000010001000100010001000100C8
:100190000000000001000100010001000100010059
:1001A000010001000100010001001E021F022002E7
:1001B00021022202010001000100010001000100F2
:1001C0000100010001000100010001000000000029
:1001D0000100010001000100010001000100010017
:1001E0000100010001002702260225022402230249
:1001F0003500310030002F002E002D003502310275
:1002000030022F022E022D0200000000010001002A
:1002100001000100010001000100010001000100D6
:1002200001000100010001000100010001000100C6
:1002300001000100010001000100010001000100B6
:1002400001000100000000000100010001000100A8
:100250000100010001000100010001000100010096
:100260000100010001000100010001000100010086
:100270000100010001000100010001000100010076
:1002800000000000010001000100010024034500FE
:10029000720067006F00460069006E006500200074
:1002A0004B006500790062006F006100720064001D
:1002B00000000E036F0072006D00630061007400A7
:1002C00000000403090409023B00020100A0FA092E
:1002D0000400000103010100092111010001224075
:1002E0000007058103080001090401000103000063
:1002F00000092111010001227B0007058203200073
:10030000011201000200000008454F4645000101AE
:1003100002000105010902A10185020901A10005F0
:1003200009190129081500250195087501810205A3
:1003300001093009311581257F950275088106096B
:10034000381581257F950175088106050C0A38024C
:100350001581257F950175088106C0C005010980BA
:10036000A101850319012AB700150126B7009501DF
:1003700075108100C0050C0901A101850419012A2D
:10038000A002150126A002950175108100C005018B
:100390000906A101050719E029E7150025019508BF
:1003A000750181029501750881010507190029FF72
:1003B000150026FF0095067508810005081901291A
:1003C00005950575019102950175039101C01124F0
:1003D0001FBECFEFDAE0DEBFCDBF04B603FE18C00C
:1003E0008091B0029091B102A091B202B091B3029B
:1003F0008730904BA740B04B59F41092B002109246
:10040000B1021092B2021092B302E0E0F8E3099553
:1004100011E0A0E0B1E0EEE6FBE402C005900D9231
:10042000A23AB107D9F722E0A2EAB1E001C01D92D9
:10043000A03BB207E1F70E9494140C949F250C9402
:10044000000081E0089581E008950C94230208954E
:100450000C9427021F93CF93DF9300D000D00F920C
:10046000CDB7DEB749835A836B833091A50189816B
:100470009A8131111DC06623B9F02223A9F00E9490
:100480008708182F682F89819A810E943008698116
:100490007A81812F0F900F900F900F900F90DF9126
:1004A000CF911F910C94440F0E945E08182FEFCF3C
:1004B0000E94870869817A81EDCFFC01262F408157
:1004C00051816281738184810C942A0281E00895B4
:1004D000CF93DF93EC0160E00E945D02BE01DF91EB
:1004E000CF910C9428020C949F100C94A2100895A4
:1004F0000E94DD060E9477022FEF84E39CE02150EA
:1005000080409040E1F700C000000C94281E0F933B
:100510001F93CF93DF938C0161E00E945D02EC0199
:10052000B8010E9425028823A9F1B801CE010E94DA
:10053000601A882379F1B801CE010E943817882308
:1005400049F1B801CE010E94CA19882319F1F801B6
:100550008281882361F0CB35FDE5DF0721F170F45E
:10056000C115ECE5DE07A1F0CF3DDC45C9F0C801BF
:10057000DF91CF911F910F910C942102CC358DE525
:10058000D807A1F0CD35DD4591F70E94BC0CEFCF27
:100590000E94780280E0DF91CF911F910F91089522
:1005A0000E94700DF7CF0E94C50CE1CF0E94C80CCD
:1005B000DECF0E94471D0C94F1020E94F4020C94BD
:1005C0004B1D08950C94E10281E008950C94E4021F
:1005D0000895CF93C82F0E94E2028C2FCF910C94E4
:1005E000E60280E00C94E9020E94801C0C94E9026F
:1005F0000E94801C9091A401981721F08093A4017F
:100600000C94E9020895CF93DF93CDB7DEB72B9713
:100610000FB6F894DEBF0FBECDBF4F8358876987F2
:100620007A878B8761110E940A0C1E821D8285E0E9
:10063000FE013796DE01119601900D928A95E1F741
:100640008C819D81892B89F449815A816B817C81C0
:100650008D819E810E942B0B2B960FB6F894DEBFE6
:100660000FBECDBFDF91CF91089589819A818923F3
:100670008F3F51F3CE0101960E9466028111E4CFB3
:10068000EBCFFC01808191810C94C908CF93C82FD6
:10069000882309F490C08238C1F40E94801C81FD37
:1006A0008AC089E30E94C50B0E942A0C2FEF81EEBD
:1006B00094E0215080409040E1F700C0000089E3C1
:1006C0000E94CC0BCF910C942A0C8338A1F40E9489
:1006D000801C80FD70C083E50E94C50B0E942A0C1F
:1006E0002FEF81EE94E0215080409040E1F700C070
:1006F000000083E5E5CF8438A1F40E94801C82FDD0
:100700005AC087E40E94C50B0E942A0C2FEF81EE8D
:1007100094E0215080409040E1F700C0000087E461
:10072000CFCF8CEF8C0F813AB8F48C2F0E940F1929
:10073000811141C06C2F80910201909103010E94B0
:10074000EA1C882329F08C2F0E94CC0B0E942A0CD3
:100750008C2F0E94C50BB6CF80E28C0F883048F4F6
:10076000C77081E001C0880FCA95EAF70E94ED0BBF
:10077000A9CFEBE5EC0FE33040F4F0E0E05AFE4F98
:10078000808190E0CF910C94AC1CE8E5EC0FE73150
:1007900050F4F0E0EE0FFF1FEE5CFE4F8081918180
:1007A000CF910C94C21CCD3E30F08C2F0E941815B6
:1007B000CF910C94EB15CF910895882309F452C082
:1007C000823871F40E94801C81FF4CC089E30E9432
:1007D000C50B0E942A0C89E30E94CC0B0C942A0CB6
:1007E000833859F40E94801C80FF3CC083E50E943E
:1007F000C50B0E942A0C83E5EFCF843859F40E9480
:10080000801C82FF2FC087E40E94C50B0E942A0C27
:1008100087E4E2CF9CEF980F913AF0F290E2980FC4
:10082000983050F4877091E001C0990F8A95EAF7EB
:10083000892F0E94F30BD2CF9BE5980F933020F4C1
:1008400090E080E00C94AC1C98E5980F973120F470
:1008500090E080E00C94C21C8D3E20F00E94721546
:100860000C94EB1508951F93CF93DF93182FEB0192
:100870000E944603209731F4812FDF91CF911F9181
:100880000C94DD038FE99FE00197F1F700C00000B1
:100890002197F0CF70E060E0893311F460E570E0FB
:1008A0000C943304882321F00E94ED0B0C942A0C45
:1008B0000895882321F00E94F30B0C942A0C0895CC
:1008C000BF92CF92DF92EF92FF920F931F93CF933D
:1008D000DF936C01D62FC72FFC011281F580F294B3
:1008E0009FE0F9220E94E30BE82E8823B9F0E12E65
:1008F0001123A1F08C2F807F803421F080E28D0FB6
:100900008830D0F08091880282FD16C082E00E947B
:100910008B0C0E94E30B91E0E82EE926BC2EB294EA
:100920008FE0B822FBE0FB1508F468C0EB2DF0E087
:10093000EF55FA4D0C942D25E12CF0CF0C2F0F70B4
:10094000C07F11F00295007F112399F0002359F028
:1009500080E28D0F883010F0D11107C0802F0E94E7
:10096000ED0B0E942A0C8D2F41C0802F0E94FD0BA1
:10097000F8CF8D2F0E94DD03002309F43FC080E2F1
:100980008D0F883010F0D11104C0802F0E94F30B1E
:1009900003C0802F0E94030C0E942A0C2FC00C2F32
:1009A0000F70C07FC03211F00295007FDD2381F00F
:1009B000D13009F469C0112309F473C0FF2009F490
:1009C00069C0F601858180FFCECF8F70858362C0BC
:1009D0008091880282FF38C0112359F0002329F04A
:1009E000802F0E94ED0B0E942A0C80E00E9446039B
:1009F00005C080E00E94DD030111C7CFEB2DE85058
:100A0000FF0B349720F40E94801C0E94E902EE2024
:100A100009F472C10E94DF0B80FD6EC1F6011282E3
:100A20000E94D90B0E949407C6010E949D060E9455
:100A3000D90BDF91CF911F910F91FF90EF90DF9035
:100A4000CF90BF900C94B507112389F0F11006C028
:100A50000E940D0C802B0E945204D0CF21E0F21294
:100A6000F7CF0E940D0C802B0E94130CC7CFF11002
:100A700006C00E94200C802F0E945904BFCF31E095
:100A8000F31609F4BBCFF5CF112331F085E08F15B4
:100A900008F4B4CF802FDFCF94E09F1508F4AECFD9
:100AA000EACFFF2041F3D93349F4FFEF27EE33E0DB
:100AB000F15020403040E1F700C000008D2F0E942F
:100AC000DD039CCF8C2F86958695837069F08130ED
:100AD00009F094CF8D2F9C2F9370111102C090E0DC
:100AE00080E00E94C21C8ACF8D2F9C2F9370111121
:100AF00002C090E080E00E94AC1C80CF8D2F1123BB
:100B000029F00E9418150E94EB1578CF0E947215EB
:100B1000FACF8C2F837009F041C011116FCF4D2F88
:100B2000429546954770440F440F0D2F0F7010E00B
:100B300030E020E0042E04C0000F111F221F331FDD
:100B40000A94D2F760E070E0CB01D4FF0FC06FE0F1
:100B500070E080E090E004C0660F771F881F991F47
:100B60004A95D2F76095709580959095C695C695F3
:100B7000C370602B712B822B932BC23049F058F439
:100B8000C13019F00E94460739CF0E94340736CF92
:100B90000E94580733CF0E94320730CF8695112329
:100BA00011F08C2F8170882309F428CF4D2F4295A6
:100BB00046954770440F440F0D2F0F7010E030E042
:100BC00020E0042E04C0000F111F221F331F0A94BF
:100BD000D2F760E070E0CB01D4FF0FC06FE070E0AF
:100BE00080E090E004C0660F771F881F991F4A9528
:100BF000D2F76095709580959095C695C695C3700F
:100C0000602B712B822B932BC23049F058F4C130EA
:100C100019F00E940B08F2CE0E94F907EFCE0E9455
:100C20001D08ECCE0E946E07E9CECF70112329F08B
:100C30008C2F0E9494078D2F0ECF8D2F0E94590468
:100C40008C2F0E94B507DACED23F51F160F4D03F2D
:100C5000B9F0D13F81F0112309F449C0F11083CEDE
:100C60008C2F8F7121C0D33F11F1D43FA1F7809118
:100C7000880282FF26C08C2F8F71112311F314C0BC
:100C8000112349F084E08F1508F4B8CE8C2F8F71B2
:100C90000E94D807B3CE95E09F1508F4AFCEF6CFEB
:100CA0008C2F8F711111CDCF0E949407A7CE1123E5
:100CB00029F08C2F8F710E947F07A0CE0E947A07A7
:100CC0009DCE112349F0CF718C2F0E94940763E0D1
:100CD0008C2F0E94700C92CE81E00E948B0CE1E080
:100CE000EF1508F08BCE82E00E948B0C87CEF110BE
:100CF000DACE8C2F8F71A5CFDF91CF911F910F91FD
:100D0000FF90EF90DF90CF90BF9008950F931F93C7
:100D1000CF93DF93EC01688179818A810E94D308A7
:100D20008C010E942F080E943107B801CE01DF918B
:100D3000CF911F910F910C946004CF93DF93EC013E
:100D40008B819C81892B29F08881998189238F3F10
:100D500059F4DF91CF910895CE010E948606CE010D
:100D6000DF91CF910C946802CE010E94870281111D
:100D7000F3CF0E94E30B882361F38A81882349F330
:100D80008091880282FDE5CF82E0DF91CF910C94C3
:100D90008B0C90E080E00E94AC1C90E080E00E9410
:100DA000C21C0E940A0C0E942A0C0E9412170C946A
:100DB000EB150E94D30B0C94C9060E94FA0B0C94FD
:100DC000D90692959F70963091F058F4925F9F707B
:100DD000923058F4803F19F030F4883E30F481E0CE
:100DE00008959A5FF4CF843FD1F380E00895883E60
:100DF000B0F3813FD1F7F3CFFC01808191810E9454
:100E0000C9080C94E106CF93DF9300D000D00F9275
:100E1000CDB7DEB70F900F900F900F900F90DF912E
:100E2000CF910895CF93DF9300D000D000D0CDB7FD
:100E3000DEB726960FB6F894DEBF0FBECDBFDF91AA
:100E4000CF91089508950C9422070E942307609380
:100E5000D2017093D3018093D4019093D5010C9467
:100E6000C90608950C9425070F931F930091D20192
:100E70001091D3012091D4013091D501602B712BB9
:100E8000822B932B1F910F910C9425070F931F9387
:100E90000091D2011091D3012091D4013091D5015C
:100EA00060237123822393231F910F910C942507B4
:100EB0000F931F930091D2011091D3012091D4017F
:100EC0003091D50160277127822793271F910F91B9
:100ED0000C9425070C9422070C946A070E946C0757
:100EE0006093CE017093CF018093D0019093D10194
:100EF0000C94C90660E070E0CB010C946E070F9370
:100F00001F9341E050E060E070E08A019B0104C063
:100F1000000F111F221F331F8A95D2F7C901B80194
:100F20001F910F910C946E070F931F9341E050E0B7
:100F300060E070E004C0440F551F661F771F8A955C
:100F4000D2F78091CE019091CF01A091D001B091C4
:100F5000D1018A019B01082B192B2A2B3B2BC9019C
:100F6000B8011F910F910C946E070F931F9341E0EE
:100F700050E060E070E004C0440F551F661F771F0B
:100F80008A95D2F7CB01BA016095709580959095BE
:100F90000091CE011091CF012091D0013091D1016B
:100FA00060237123822393231F910F910C946E076A
:100FB0000F931F9341E050E060E070E004C0440FE5
:100FC000551F661F771F8A95D2F78091CE019091A9
:100FD000CF01A091D001B091D1018A019B010827D6
:100FE00019272A273B27C901B8011F910F910C949B
:100FF0006E070F931F930091CE011091CF012091A6
:10100000D0013091D101602B712B822B932B1F913A
:101010000F910C946E070F931F930091CE011091C6
:10102000CF012091D0013091D1016023712382231F
:1010300093231F910F910C946E070F931F930091B0
:10104000CE011091CF012091D0013091D1016027C4
:101050007127822793271F910F910C946E07089593
:10106000E92FEE0FE90FEE0F8E0F982F977041E0EA
:1010700001C0440F9A95EAF786958695869595E086
:10108000899FF0011124EA55FE4F30E020E070E026
:101090005191DF011197CB01022E02C096958795E1
:1010A0000A94E2F7817081958527842385278C93A4
:1010B0002F5F3F4F2530310559F70895E92FEE0F87
:1010C000E90FEE0F8E0F982F97708695869586956F
:1010D00025E0829FF0011124EA55FE4F50E040E0E8
:1010E00080E0219130E0092E02C0369527950A94C0
:1010F000E2F721703327042E01C0220F0A94EAF789
:10110000822B4F5F5F4F4530510559F70895BF92CD
:10111000CF92DF92EF92FF920F931F93CF93DF93C3
:101120008C01C090CE01D090CF01E090D001F09022
:10113000D1018091D2019091D301A091D401B091BD
:10114000D501C82AD92AEA2AFB2ACFE1D0E0BC2E51
:10115000D701C6010C2E04C0B695A7959795879523
:101160000A94D2F780FD0EC0219788F7B12C8B2D01
:10117000DF91CF911F910F91FF90EF90DF90CF9073
:10118000BF900895B8018C2F0E94580F019761F30A
:10119000EECFCF93DF93EC010E948708BE01DF9171
:1011A000CF910C94580F1F93CF93DF93EB01909145
:1011B000A501992331F0CB01DF91CF911F910C94C0
:1011C000C908882379F0CB010E948708182F682F5F
:1011D000CE010E943008BE01812FDF91CF911F9177
:1011E0000C94580FCB010E945E08182FF4CF1F9368
:1011F000CF93DF93C091D60116E08091D7018C1375
:1012000004C0DF91CF911F910895D0E01C9FF001A1
:101210001D9FF00D1124E852FE4F408151816281E3
:101220007381848195810E9412072196C770E5CF52
:10123000409108025091090260910A0270910B02DC
:1012400080910C0290910D020C941207FF920F9363
:101250001F93CF93DF9380910D02807FD1F4809113
:101260000A028823B1F08091D6011091D7016091D4
:10127000080270910902A0910B02B0910C02062F96
:101280000723C0910001D091010196E0F92E1813B7
:1012900006C0DF91CF911F910F91FF90089590E0CC
:1012A000109711F00F3F19F401968770F0CFF89E58
:1012B0009001F99E300D1124F901E852FE4F418151
:1012C0004713F2CF40814613EFCF42814111ECCF5B
:1012D000438154814A1B5B0B4C175D0728F78091B3
:1012E0000D028F70806180930D02F901E352FE4F71
:1012F00080818F708061808388E092E00E949D06EB
:10130000DF91CF911F910F91FF900C94F708AF924E
:10131000BF92CF92DF92EF92FF920F931F93CF93E2
:10132000DF93CDB7DEB761970FB6F894DEBF0FBE7F
:10133000CDBF8C0185E0F801DE011D9601900D9274
:101340008A95E1F7F801E28088E0C82E82E0D82E85
:1013500060910B0270910C026115710509F45FC177
:101360009091080220910902892F82238F3F09F46E
:1013700056C140815181A380B480F0900A02F501EA
:10138000E61BF70BBF01E0910001F0910101FF2086
:1013900009F4F6C080910D02382F307F6E177F0759
:1013A00008F0AFC0311179C0FE2C251323C094136F
:1013B00021C0E1101FC08F70806180930D020E94D8
:1013C0001809C6010E949D0680910D02F8018583CF
:1013D0008F2D61960FB6F894DEBF0FBECDBFDF91A3
:1013E000CF911F910F91FF90EF90DF90CF90BF9022
:1013F000AF900895AB2829F0842F85238F3F09F003
:1014000027C180E0F82FF170DF2E80FF3CC0809173
:10141000D6012091D70136E0821315C04D875E8733
:101420008D859E850E94C908292F22952F70223014
:10143000F0F0243018F59F70F1F0F8019581907F5D
:10144000D1F4D12C1EC090E0389FF001399FF00DEF
:101450001124E852FE4F6181651306C06081641358
:1014600003C062816E110FC001968770D5CF9F7047
:1014700011F0882331F3805E883018F3C8010E9490
:101480009D06FD2CA5CFEE2009F4A2CF80910D0280
:10149000816080930D02F12C9BCF251306C094131D
:1014A00004C0F801EE2009F487C0C8010E94FC06C0
:1014B000882319F1EE2009F180910D02803270F03D
:1014C000209108023091090238872F831986BB8644
:1014D000AA868C87CE0107960E949D0686E0F801B9
:1014E000A8E0B2E001900D928A95E1F70E942609EA
:1014F0000E941809FF24F3946BCFC8010E949D0637
:10150000F9CF311113C07A2DB98AA88A6E2D898935
:101510000E94030788E092E00E949D0686E0F601A3
:1015200011928A95E9F70E941809B5CF25130FC0CB
:1015300094130DC0E1100BC0F8018583C8010E940F
:101540009D0686E0F60111928A95E9F741CFC80120
:101550000E94FC06882389F2EE2079F280910D0228
:10156000803208F4BBCF20910802309109023A83FF
:1015700029831B82BD82AC828E83CE010196ACCFC3
:101580006E177F0708F03EC0FE2CEE2009F4B5CFA1
:1015900025132AC0941328C080910D0280FD1BC022
:1015A000982F907FC1F0F8018583903F31F0982FFC
:1015B000907F905F8F70892B8583C8010E949D0664
:1015C00086E0F801A8E0B2E001900D928A95E1F77B
:1015D0000E941809FDCE86E0F801A8E0B2E0019073
:1015E0000D928A95E1F7F4CEC8010E94FC068111A4
:1015F00075CF80910D02816080930D02C8010E9419
:101600009D06E6CE7A2DB98AA88A6E2D89890E9418
:10161000030786E0F60111928A95E9F7D9CFEE200B
:1016200009F46BCFC8010E94FC06F82E882309F448
:1016300064CF86E0F801A8E0B2E001900D928A95AF
:10164000E1F788E092E00E9441030E942609C0CFA2
:1016500081E08E25D7CE1F93CF93DF93CDB7DEB732
:101660002C970FB6F894DEBF0FBECDBF4F835887BF
:1016700069877A878B879C87CE0107960E948709A6
:10168000882369F08A859B85892B39F04F8158859D
:10169000842F85238F3F09F071C016E05FC086E07C
:1016A000FE013796DE01119601900D928A95E1F7C1
:1016B0008A859B85892B89F38F81988589238F3F24
:1016C00061F32091D70130E0C90101968770992715
:1016D0004091D6014817190671F40E94DD06109258
:1016E000D7011092D60186E0E8E0F2E0DF011D921A
:1016F0008A95E9F7D2CF96E0929FD001939FB00DE3
:101700001124A852BE4FFE01319601900D929A9578
:10171000E1F78093D7010E94F708BFCF819FC001F6
:10172000112488529E4F0E9487098823E9F0E09196
:10173000D6011E9FF0011124E852FE4F40815181D5
:1017400062817381848195810E9412078091D60104
:1017500090E00196877099278093D6018091D601F9
:101760009091D7018913DACF2C960FB6F894DEBF8B
:101770000FBECDBFDF91CF911F91089569857A8506
:101780008B859C850E94120788CF682F809102016B
:10179000909103010C94201D682F8091020190917B
:1017A00003010C94221D80910201909103010C947D
:1017B000241D8091160285958595859508958091C3
:1017C00016028770089590911602977081E009F4CF
:1017D00080E0089580912102089590912102892B43
:1017E00080932102089580959091210298239093EF
:1017F0002102089510922102089590912002892BD0
:1018000080932002089580959091200298239093D0
:1018100020020895109220020895809117020895E1
:1018200008950C94100C9091880292FD08C090913C
:101830001702981721F0809317020C94110C089549
:1018400080911702882329F01092170280E00C94EF
:10185000110C0895CF93DF93E0910201F091030101
:10186000809121028083E0910201F0910301808147
:1018700090912002892B808390911702992381F007
:10188000E0910201F09103018081892B8083809196
:101890000201909103010E94D81C81110E94200C2A
:1018A000C0910201D091030148E050E06EE072E087
:1018B000CE010E944725892B69F088E0FE01AEE049
:1018C000B2E001900D928A95E1F7CE01DF91CF91C0
:1018D0000C94931CDF91CF91089508950C946D0C96
:1018E0009091880292FD10C098E0899F9001112488
:1018F000622B609316020E949407809116028595D0
:10190000859585950C946E0C0C9494071092160294
:1019100080E00C946E0C9091160280958923809340
:101920001602282F277091F4282F082E000C330B55
:101930009217130659F09091880292FD07C0859581
:10194000859585950E94B5070C94860C0895909115
:10195000880292FB222720F9281769F080FB92F970
:101960009093880280918702909188020E94EC0CEB
:1019700082E00C948B0C08958091880282FB88276A
:1019800080F991E089270C94A70C81E00C94A70CB6
:1019900080E00C94A70C90E080E00E94652521E097
:1019A000893E9E4F09F020E0822F089582E090E06A
:1019B0000C945D2583E090E00C945D25CF9384E04A
:1019C00090E00E945D25C82F82E290E00E945D2594
:1019D000982F8C2FCF910895CF93C92F682F84E033
:1019E00090E00E946B256C2F82E290E0CF910C94E6
:1019F0006B25AB01BC018FE090E00C947D25AB0121
:101A0000BC0183E190E00C947D2560E070E0CB01A7
:101A10000C94FF0C60E070E0CB010E94F90C0C9478
:101A2000050D69EE7EEF90E080E00E94892560E080
:101A300082E090E00E946B2560E083E090E00E94ED
:101A40006B251092D2011092D3011092D401109202
:101A5000D50160E084E090E00E946B2560E082E2C6
:101A600090E00E946B2560E085E090E00E946B258D
:101A700060E086E090E00E946B256FEF87E090E0E9
:101A80000E946B2540E050E0BA0188E090E00E949F
:101A90007D2560E08DE090E00E946B2540E050E005
:101AA000BA0188E190E00E947D2560E087E190E046
:101AB0000E946B2540E050E0BA018CE190E00E946A
:101AC0007D2570E060E080E290E00E94892540E0A2
:101AD00050E0BA0188E190E00E947D250C940A0D47
:101AE0000C94110D682F8EE090E00C946B250E94F1
:101AF000CD1D609330027093310280933202909337
:101B0000330260932C0270932D0280932E029093E7
:101B10002F02089585B7806885BF85B7806885BF27
:101B20000895089508950C94920D08950C94950DC0
:101B30000E948A0D87E790E10E94761C0E94910D19
:101B40000C94930D0C946112089508950E94A40DB5
:101B50000C94A50D0E947A100C94E8020E94B81D06
:101B60000E9436100E947B120E94B5110E94AA0D9D
:101B70000E9420170E9485120C94960D9F92AF929E
:101B8000BF92CF92DF92EF92FF920F931F93CF936A
:101B9000DF93CDB7DEB72A970FB6F894DEBF0FBE3E
:101BA000CDBF0E94D711C82E81110E94770D82E20D
:101BB000A82E82E0B82E10E000E0902E802F0E9428
:101BC000A410E82EF501F1905F01F81609F445C064
:101BD0008091340281FD0E94AA108F2D8E25D12C78
:101BE000FF24F394982F9F2199F10E94A20D88233E
:101BF00099F0DE829F82EF2081E009F480E08887FF
:101C00000E94C11D8160782F9A8789874E815F81EC
:101C100068858A850E940303F801EE5DFD4F80818F
:101C2000F826F08281E0C11001C080E02A960FB64C
:101C3000F894DEBF0FBECDBFDF91CF911F910F9102
:101C4000FF90EF90DF90CF90BF90AF909F9008955E
:101C5000D394FF0CF6E0DF12C5CF0F5F1F4F0A30A1
:101C6000110509F0AACF8FEF89838A831B820E9416
:101C7000C11D8160782F9D838C8349815A816B813E
:101C80008D810E940303CECF0E94BE0D0E9461127F
:101C90000E9406160C94F802CF93DF930E945C0F0B
:101CA000EC01811521E5920708F042C0811530E56D
:101CB000930708F09DC0883E910530F5803E910560
:101CC00008F092C0883A910588F4853A910508F0A9
:101CD00084C08130910509F487C0009709F484C05D
:101CE000049708F081C0D0E0C0E07EC08F3B910532
:101CF000D0F7C85AD0E0CC0FDD1FCD59DE4F099088
:101D0000D881C02DD46470C08115904250F4C115A3
:101D100081E0D80708F068C0CD3ED10520F3D0653A
:101D200063C0C11590E4D907F0F2DF70D06A5CC0DF
:101D3000811525E5920700F5811534E5930708F034
:101D40008BC0811543E5940708F073C0C11582E587
:101D5000D80708F469C0CE018370992721E030E0EC
:101D600002C0220F331F8A95E2F7C695C69580E21E
:101D7000C89FE001112454C0C11599E5D907A8F402
:101D8000C11528E5D20708F06CC0C11536E5D307A8
:101D900008F0A9CF8C2F0E94F30FC82FD0E0DC2FC2
:101DA000CC27CC27DF71D0621FC0C1154AE5D4070C
:101DB00008F45CC0CE0190568115904208F093CF94
:101DC0008D2F8F710E94F30F90E0982F882788271E
:101DD0009F719C012C2BE901E6CFC55AD0E0CF566C
:101DE000DE4FC881D0E0D064CE01DF91CF9108955D
:101DF000E4E096958795EA95E1F783702C2F269578
:101E00002695237040E2249F90011124382B8C2FBB
:101E10008370C1E0D0E002C0CC0FDD1F8A95E2F7ED
:101E2000C22BD32BDC68E0CFDC2FCC27C16FD06A6C
:101E3000DBCF8370992721E030E002C0220F331FEF
:101E40008A95E2F7C695C69590E2C99FE0011124F4
:101E5000C22BD32BDA68C8CFD82FCC27C46FD06A57
:101E6000C3CFDC2FCC27C06FD06ABECF8C2F8F7032
:101E70000E94F30F34E0D695C7953A95E1F7CF70FD
:101E80009C2FEC01D069B0CF972F70E026E0929F95
:101E9000600D711D1124FB019CE3899FE00DF11D74
:101EA0001124EE0FFF1FE455FF4F85919491089583
:101EB0000E94440F0C944C0E82389105B1F1B0F49D
:101EC0008133910509F475C048F48932910509F40C
:101ED00069C08A32910509F473C00895853391056C
:101EE00009F459C08933910501F10895833E9105A4
:101EF000A9F138F4803E9105F9F0823E910549F14F
:101F00000895863E9105A9F1873E9105C9F1843E69
:101F1000910519F52091880221FF1FC08091870249
:101F200084FD14C087EE90E008952091870223700D
:101F3000A1F080EE90E008952091870220FD47C037
:101F40003091880230FF09C024FF44C090E080E057
:101F500004C02091870222FDF7CF089520918702C7
:101F600022FD3BC03091880230FDE3CF24FFF5CF46
:101F7000EDCF2091870223FFF0CF24FDE7CFD2CF12
:101F80002091870223FD2CC03091880231FFEECFD3
:101F900084EE90E008952091870225FFDECF89E24C
:101FA00090E008952091870225FFD7CF85E390E048
:101FB00008952091870226FFD0CF8AE290E008950D
:101FC0002091870226FFC9CF81E390E0089589E33D
:101FD00090E0089583EE90E0089582EE90E00895F9
:101FE00086EE90E008959091870292FF06C0282F18
:101FF00028712830F9F4877F846093FF06C0282F6A
:1020000028712831F1F4877E84612091880220FFB5
:1020100006C0382F38713830D9F4877F816021FFAE
:1020200006C0282F28712831D1F4877E816194FD64
:10203000877E0895282F24712430F9F68B7F8860DD
:10204000DCCF282F2471243101F78B7E8861DDCF0E
:10205000382F3171313019F78E7F8860E0CF282F0B
:102060002171213121F78E7E8861E1CF10928302A8
:102070001092840210928502109286020895CF92E7
:10208000DF92EF92FF926B017C010E94611281113D
:102090000EC00E94CD1DC61AD70AE80AF90AC092DE
:1020A0008302D0928402E0928502F0928602FF9031
:1020B000EF90DF90CF9008950F931F930E946112CD
:1020C000882321F01F910F910C94CD1D0E94CD1DEE
:1020D0000091830210918402209185023091860242
:1020E000600F711F821F931F1F910F91089580E051
:1020F000089508950E94CB0C811102C00E94700DBA
:102100000E94D60C809334020E94DE0C90938802C9
:10211000809387020E9479100E94DA0C682F70E089
:1021200090E080E00E9432076091CE017091CF0173
:102130008091D0019091D1010C946C0708950C947A
:102140009E1008950C94A110E82FF0E0EC56FD4F7E
:1021500080810895089580EA8A95F1F7089500C076
:1021600008950C94AB1008950C94B310EF92FF9265
:102170000F931F93CF93DF9300D000D00F92CDB772
:10218000DEB70E946112F82E60919E02882309F446
:1021900048C085E0E82E8E010F5F1F4FF8018E2D9D
:1021A00011928A95E9F7862F90E0B8018C569D4FE1
:1021B0000E9493128823F9F08091890290E045E013
:1021C00050E0B8018C569D4F0E94472521E0209396
:1021D0003502892BD1F4F12C0E9475028F2D0F90BE
:1021E0000F900F900F900F90DF91CF911F910F9153
:1021F000FF90EF90089580913502882361F3F801F4
:102200001192EA94E9F710923502A0918902B0E0A8
:10221000AC56BD4F85E0F80101900D928A95E1F72B
:10222000DBCF70E06C567D4F8091890290E08C5638
:102230009D4F0E941B130E94B410D0CFF894E82F3A
:10224000E295EF70F0E031A1282F2F7081E090E04F
:1022500001C0880F2A95EAF7982F9095932391A3B0
:1022600092A1892B82A378940895CF93DF93CAE932
:10227000D1E089918F3F11F00E941E1181E0CF398A
:10228000D807B9F7C4E9D1E089918F3F11F00E94D6
:102290001E1181E0CA39D807B9F7DF91CF910895AF
:1022A000CF92DF92EF92FF920F931F93CF93DF9322
:1022B000EC01D62E062F10E0C80186569E4F7C01F9
:1022C000FC0180818F3F09F445C0F894E82FE29526
:1022D000EF70F0E091A18F7021E030E001C0220F9B
:1022E0008A95EAF7892F822B81A382A12095282342
:1022F00022A378940E94AF10E4E9F1E04AE951E0AA
:1023000031E0C12C21912F3F71F1A22FA295AF7026
:10231000B0E090968C9190E02F7002C095958795D3
:102320002A95E2F780FD1FC0832FC82A330F4E176E
:102330005F0741F7F70180818F3F11F00E941E1166
:1023400061E0C11001C060E08D2D0E94B110C00F8E
:10235000D11FC882DF91CF911F910F91FF90EF9015
:10236000DF90CF90089580E0E0CF809104018091CC
:10237000040195E0811190E090939E0285E0891B15
:10238000809389020E9435118AE0E4E9F2E0DF01DE
:10239000982F1D929A95E9F7EAE8F2E0DF011D9285
:1023A0008A95E9F785E00E942A120C947302EF9255
:1023B000FF920F931F93CF93DF93CDB7DEB72A978A
:1023C0000FB6F894DEBF0FBECDBF8E010F5F1F4F5B
:1023D0008AE0F80111928A95E9F7F12C6F2DC80176
:1023E0000E945011F394F5E0FF12F8CF4AE050E05C
:1023F000B8018AE892E00E9447257C0121E0892B00
:1024000009F420E0E114F10441F08AE0F801AAE8BF
:10241000B2E001900D928A95E1F760919E0270E022
:102420006C567D4F45E08AE892E00E942B1281E0D5
:1024300090E0EF2811F40E94B6102A960FB6F89497
:10244000DEBF0FBECDBFDF91CF911F910F91FF90E7
:10245000EF9008950895FF920F931F93CF93DF930A
:10246000F82E092F162FD72FC42F222349F081E0F1
:10247000809338020E94C11D9093370280933602E8
:10248000809138028823A1F0809136029091370222
:102490000E94D91D059760F0EF2DF02FA12FBD2FC1
:1024A000CE0FDF2FD11DEC17FD0741F4109238023B
:1024B000DF91CF911F910F91FF90089581918D939E
:1024C000F2CF80913B02811107C00E940C25882326
:1024D00051F081E080933B0281E090913B0291308A
:1024E00009F080E0089582E080933B020E94072576
:1024F000F3CF0C9461120E947912809304010E9420
:10250000611281110C94C91208950E946112811107
:1025100002C00C94CB12089581E090913C029A3055
:1025200008F080E008950F931F93CF93DF93EC01A1
:102530008B0180913C028A30B8F4B801CE010E9430
:102540001913C82F811122C080913C028F3FB9F42A
:102550000E94C11D90933A02809339028C2FDF9123
:10256000CF911F910F9108958091390290913A0275
:102570000E94D91D843F914000F7C0E0EFCF8F5FEC
:1025800080933C028A3020F7C1E0E8CF10923C02F1
:10259000E5CF0C94131B0C94161BDF92EF92FF9265
:1025A0000F931F93CF93DF937901C82F880FDD0B13
:1025B00041155105A9F0FE0193E0EE0FFF1F9A951A
:1025C000E1F7EB5FFE4F81819281835C9D4F20811B
:1025D00030E04217530708F49A01A9010E945425DC
:1025E000CE010E94001CD82E8823D1F001151105C0
:1025F000B9F083E0CC0FDD1F8A95E1F7FE01EB5FB8
:10260000FE4F438150E00417150708F4A801CB5F83
:10261000DE4F6C817D81635C7D4FC7010E94542534
:102620008D2DDF91CF911F910F91FF90EF90DF9053
:1026300008950C9432140C944E140F931F93CF935F
:10264000DF9300D000D0CDB7DEB760915402709117
:10265000550280915602909157020E94E81D11E0A8
:10266000643671058105910518F10E945C106E5F5A
:102670007F4F8F4F9F4F69837A838B839C8310E0BA
:1026800000E030E020E044E050E0BE016F5F7F4FAB
:1026900082E00E94CD12182F882351F00E94CD1D98
:1026A00060935402709355028093560290935702A0
:1026B000812F0F900F900F900F90DF91CF911F916E
:1026C0000F910895AF92BF92CF92DF92EF92FF9257
:1026D0000F931F93CF93DF9300D000D000D0CDB7DE
:1026E000DEB77B01C0909F01D090A00101E010E017
:1026F0009E012A5F3F4F50E040E070E060E080E0E4
:102700000E94CD12182F882309F448C056018FEF7C
:10271000A81AB80A60915002709151028091520239
:10272000909153020E94E81D643671058105910560
:1027300068F105E010E09E012F5F3F4F50E040E060
:1027400070E060E081E00E94CD12D82E65E070E07C
:10275000C5010E94211711E09E81981310E01D21F0
:1027600041F10E94CD1D60935002709351028093FD
:1027700052029093530285E0FE013196ABE4B2E041
:1027800001900D928A95E1F711E013C065E070E0C9
:10279000C5010E9421179E818913CBCF85E0F601E8
:1027A0003196DE01119601900D928A95E1F7111193
:1027B000E2CF85E0EBE4F2E0D70101900D928A953B
:1027C000E1F7812F26960FB6F894DEBF0FBECDBF7E
:1027D000DF91CF911F910F91FF90EF90DF90CF90FD
:1027E000BF90AF900895AF92BF92CF92DF92EF92D9
:1027F000FF920F931F93CF93DF937C015B016A01DC
:102800000E948C1201E010E0882311F00AE010E031
:10281000C1E0D0E0F894B501C701F60109957894BC
:10282000811104C021960C171D075CF4DF91CF9134
:102830001F910F91FF90EF90DF90CF90BF90AF90DE
:102840000895CC9F9001CD9F300D300D112490E064
:1028500080E045E34A95F1F700000196821793075F
:10286000C1F7D8CF0F931F93CF93DF93EC018B0168
:1028700042E653E10E94F313882351F04DE153E106
:10288000B801CE01DF91CF911F910F910C94F313FA
:1028900080E0DF91CF911F910F9108950F931F93C7
:1028A000CF93DF93F894C0919F01D091A001CE0106
:1028B000019625E0FB01DC0101900D922A95E1F7DC
:1028C00065E070E00E94211788837894F8946E8107
:1028D0007F81888599850091470210914802209157
:1028E000490230914A02601771078207930751F03D
:1028F00060934702709348028093490290934A0282
:102900000E943F107894DF91CF911F910F9108950D
:102910000E94DB1F0E94AE0D0C94E71F0E94EB1F6C
:102920000E94440E0C9405200E94611D0E94C21F4B
:102930000E94980D0E9488140E948E140E94A60D79
:10294000FBCF80915E0280FF0DC06091220170E09C
:10295000660F771F6038710570F56115710569F1B3
:10296000862F089581FF07C06091220184E0689F4F
:10297000B0011124EFCF6091220182FD0AC0809145
:102980005D028823A9F02091210160912201821724
:1029900010F088E0ECCF869FC001112433E0880F4F
:1029A000991F3A95E1F7622F70E00E941925D2CF66
:1029B00068E070E0D5CF8FE7089581E008958091B9
:1029C0005E0280FF0CC060911E0170E075956795F6
:1029D000759567956115710549F1862F089581FFF9
:1029E00006C060911E0170E075956795F3CF609108
:1029F0001E0182FD0BC090915C029923A1F06091B1
:102A00001D0180911E01961738F0682F70E0603824
:102A1000710500F38FE70895899FC001112470E0CC
:102A20000E941925F4CF61E070E0D7CF81E00895CE
:102A30008D3E31F40E94A114819580936202089525
:102A40008E3E19F40E94A114F8CF8F3E31F40E94FB
:102A5000A1148195809361020895803F19F40E942A
:102A6000A114F8CF893F29F40E94DF1480936302F8
:102A700008958A3F21F40E94DF148195F7CF8B3FA0
:102A800031F40E94DF1481958093640208958C3F95
:102A900019F40E94DF14F8CF9FE0980F983070F47B
:102AA000815F990B21E030E001C0220F8A95EAF79F
:102AB00080916002822B8093600208958D3F31F4F3
:102AC00080915E02816080935E0208958E3F21F4C2
:102AD00080915E028260F7CF8F3FB9F780915E02EE
:102AE0008460F1CF409161028D3E59F48091620281
:102AF00087FF0DC01092620241110BC010925D025F
:102B000008C08E3E81F48091620218169CF3442323
:102B100081F08091630290916402892B09F05AC080
:102B200010925C0208958F3E49F447FFF0CF109257
:102B30006102809162028111ECCFE0CF803F19F4F5
:102B40001416ACF3E4CF90916302893F29F419166F
:102B5000F4F610926302DBCF8A3F19F497FFD7CFC8
:102B6000F8CF909164028B3F29F497FFD0CF109259
:102B70006402CDCF8C3F19F41916CCF3C8CF9FE077
:102B8000980F983090F4815F990B21E030E0B90103
:102B900002C0660F771F8A95E2F7CB01809590916E
:102BA0006002892380936002B2CF8D3F31F480911F
:102BB0005E028E7F80935E02AACF8E3F21F48091C9
:102BC0005E028D7FF7CF8F3F09F0A1CF80915E022B
:102BD0008B7FF0CF08950E94C11D9C0190916102EE
:102BE00080916202982B21F030935B0220935A026D
:102BF0009091630280916402982B21F030935902E6
:102C0000209358028FE592E00C949E1CEF92FF9265
:102C10000F931F93CF93DF9300D000D000D0CDB798
:102C2000DEB786E0EFE5F2E0DE01119601900D924D
:102C30008A95E1F7E0906102F090620200916302F0
:102C4000109164021092610210926202109263026B
:102C5000109264028E2D8F2991F080915A029091EA
:102C60005B020E94D91DAC0190915D02992309F489
:102C70003FC0809123018417150608F447C0802FB8
:102C8000812B91F080915802909159020E94D91D98
:102C9000AC0190915C02992309F477C080911F01E7
:102CA0008417150608F47FC080916102909162023A
:102CB000892B90916302892B90916402892B11F0EA
:102CC0000E94EB1586E0FE013196AFE5B2E001907F
:102CD0000D928A95E1F726960FB6F894DEBF0FBEE7
:102CE000CDBFDF91CF911F910F91FF90EF9008958D
:102CF000209124018AE0289F900111242417350790
:102D000008F0BDCF9F5F90935D0202C09F3FD1F757
:102D1000EE2059F00E94A1149FEF1E140CF491E0D4
:102D2000899F802D112480936102FF2059F00E9419
:102D3000A1149FEF1F140CF491E0899F802D1124A2
:102D40008093620230916102332309F498CF20917D
:102D50006202222309F493CF45EB3403C00111240E
:102D6000992359F09093610245EB240390011124BB
:102D7000332339F03093620282CF81E08093610285
:102D8000F3CF81E0809362027ACF209120018AE024
:102D9000289F900111242417350708F085CF9F5FE5
:102DA00090935C0202C09F3FD1F7002359F00E942C
:102DB000DF149FEF10160CF491E0899F802D1124F1
:102DC00080936302112359F00E94DF149FEF1116C4
:102DD0000CF491E0899F802D11248093640230913E
:102DE0006302332309F460CF20916402222309F4A3
:102DF0005BCF45EB3403C0011124992359F0909324
:102E0000630245EB240390011124332339F03093FE
:102E100064024ACF81E080936302F3CF81E0809324
:102E2000640242CF86E0EFE5F2E0DF011D928A9571
:102E3000E9F710925D0210925C0210925E02089512
:102E40000895FC01680F791F8FEF91E36E177F07DC
:102E500009F408952191822728E030E087FF06C019
:102E6000880F892721503109C9F7F0CF880FFACF91
:102E7000CF93DF93EC01FB018281882309F433C1F6
:102E8000C430FDE5DF07C0F5CB3F9CE5D90730F442
:102E90009E0122503C4524313105B0F50E94DE0CE4
:102EA0009093880280938702C1318CE5D80709F49A
:102EB000EEC008F069C0C930ECE5DE0709F4D5C002
:102EC000C8F5C5308CE5D80709F4C7C000F5C33094
:102ED000ECE5DE0709F4B9C008F0BBC0C230DC4540
:102EE00009F4ADC080918702909188020E94EC0C99
:102EF0000E94DD0680E008C0C236EDE5DE0771F213
:102F0000C63AFDE5DF0751F2DF91CF910895809138
:102F100087028062C7309CE5D90709F493C080918D
:102F200087028061C830DC4508F48CC0809187023C
:102F3000806488C0809187028B7FCD30FCE5DF07FD
:102F400009F480C098F4809187028E7FCB309CE595
:102F5000D90709F477C0809187028C60CC30DC45BA
:102F600008F470C0809187028D7F6CC080918702C9
:102F70008F7ECF30FCE5DF0709F464C008F47BC026
:102F8000809187028F7D5EC0CE3F9CE5D90709F412
:102F90007AC050F5C531FCE5DF0709F486C098F426
:102FA00080918702837FC3319CE5D90709F44AC029
:102FB00008F471C00E94DD0690918702892F97FB6B
:102FC00087F980583FC0CC3FFCE5DF0709F449C0D2
:102FD00008F055C0809188028160CB3FDC4509F044
:102FE00081CF809388027ECFC230EDE5DE0709F401
:102FF00068C0A8F4C1158DE5D80709F452C08091C6
:1030000088028360C130DD4560F380918802982F8B
:10301000909591708E7F892B90FB81F9E2CFC2361B
:10302000EDE5DE0709F451C0C63AFDE5DF0709F416
:1030300053C0C330DD4509F055CF80E043C08091D7
:1030400087028160809387024DCF809187028260E2
:10305000F9CF809187028460F5CF809187028860E4
:10306000F1CF809188028260BCCF0E94DD06809102
:1030700087028068E7CF80918702877FE3CF8091C6
:1030800088028E7FAECF809188028D7FAACF8091FB
:1030900087028F7BD7CF0E94DD06809187028F77D2
:1030A000D1CF809188028C7F9CCF8091870282FB58
:1030B000992790F921E0922790FB82F990FB83F900
:1030C000C1CF81E00E94720D0DCF90918702892FB0
:1030D0008F7E94FF8061B6CF90918702892F8E7F7B
:1030E00090FF8160AFCF81E00FCF0F931F9341E03E
:1030F00050E060E070E08A019B0104C0000F111FE6
:10310000221F331F8A95D2F7C901B8010E943207E6
:103110001F910F910C94DD068B3109F461C040F5CD
:103120008B3071F078F4863009F443C020F4853098
:1031300059F180E00895873009F444C08830C9F718
:1031400081E00895803109F459C068F48E3089F720
:1031500090913402892F8B7F92FF84608093340298
:1031600082FD48C0EDCF863159F3893149F3E1CF73
:103170008A32E1F060F48732A9F020F48E31C8F28F
:103180008D5111C08932A9F60E947802D9CF8334BB
:1031900038F48A33F0F5853329F0883389F2C9CFC2
:1031A000833439F680E00E947518CACF0E94700DF2
:1031B000C7CF80913402807F8093340281E0809376
:1031C0006802089590913402892F8E7F90FF81606C
:1031D0008093340280FDB4CF817F80933402B0CFDE
:1031E00090913402892F8D7F91FF82608093340209
:1031F00081FFA6CF809134028160EFCF909134029D
:10320000892F877F93FF88608093340283FDF2CFFC
:1032100097CF8953C8CF80E008950C940B19CF93B2
:10322000C82F809168028130B9F0882331F0823054
:10323000A1F11092680280E00DC00E94EA0B823278
:10324000D1F78C2F0E940B1981111BC08C2F0E946B
:103250008C188170CF9108950E94EA0B823289F315
:103260008C2F0E940D1981110AC0C43199F060F4AD
:10327000CB3029F0C03169F782E08093680281E0A9
:10328000E8CF81E090E0E5CFC93221F0C833B9F34F
:1032900080E0DFCF10926802FBCFC93209F440C052
:1032A000F0F4C431E9F1A8F481E0C73099F68093D5
:1032B000240184E1809323018AE0809322018EE13E
:1032C0008093210188E080931E0188E280931D0194
:1032D00004C082EE8C0F8A3070F181E0BBCFC03524
:1032E00009F450C0B8F48AE0CF34B9F7E091650230
:1032F000F0916602309789F32081082E000C990B1B
:10330000820F911D8F3F910509F00CF43FC08FEFA4
:103310008083E3CFC135C1F181E0C23539F39ACF63
:10332000809167028823C9F21092670210926602A8
:1033300010926502D2CFCD51C0936702C330C9F05D
:1033400048F4C13099F083E291E0C23051F010921C
:103350006702C3CFC53099F078F08DE191E0C630B7
:10336000B1F79093660280936502B7CF84E291E053
:10337000F8CF82E291E0F5CF81E291E0F2CF8EE1E9
:1033800091E0EFCF86EFB2CF8FEFB0CF97FFC0CFF6
:103390001082A3CFCF93DF93EB0186319C4511F5CB
:1033A0000E94EA0B9A81992399F08A7A91E009F4B4
:1033B00090E090936902811109C089E20E94C50BD7
:1033C0000E942A0C80E0DF91CF91089585E3F6CF2B
:1033D00080916902811104C089E20E94CC0BF0CF78
:1033E00085E3FBCF81E0EFCF0F931F93CF93DF9364
:1033F000C42FD22FFC0182818823C9F040936C0234
:103400000E94C11D90936B0280936A0280E28C0F30
:10341000883008F050C0C77081E001C0880FCA959D
:10342000EAF7DF91CF911F910F910C945204109104
:103430006C02141335C080916A0290916B020E9455
:10344000D91D883C910560F5C0E2CD0F1D17B9F07C
:1034500080E2810F883040F4177081E001C0880F4E
:103460001A95EAF70E945904C83048F481E09D2F6C
:10347000977001C0880F9A95EAF70E945204802F36
:103480000E944A04C830B8F4D77081E001C0880FA8
:10349000DA95EAF7DF91CF911F910F910C945904BF
:1034A00080E28C0F883038F4C77081E001C0880F4B
:1034B000CA95EAF7EFCFDF91CF911F910F91089551
:1034C0000F939C01CB01243F4CE5340759F1A8F43C
:1034D000293DFCE53F0701F12A3D4CE53407D1F1D8
:1034E000283D3C4591F406E221EE41EE68ED7CE595
:1034F0000E94F41980E00F910895263FFCE53F07F4
:10350000E9F0B0F0273F3C45F9F0FC0182818823C7
:1035100039F110926C02EFCF07E225EE45EE69ED2E
:103520007CE5E6CF06E221EE40EE64EF7CE5E0CFFD
:1035300007E225EE44EE65EF7CE5DACF06E221EE08
:1035400042EE66EF7CE5D4CF07E225EE46EE67EF6C
:103550007CE5CECF08E221E045EE6AED7CE5C8CF00
:1035600081E0C9CF8EE14A9B02C08150E1F74A9BBE
:10357000FECF08955A9880E28A95F1F75A9A0895F5
:10358000FC013BE03A95F1F798E020E080E031E083
:1035900040E14A95F1F7880F4A9B02C081602327DA
:1035A00042E04A95F1F7000040E14A95F1F7915069
:1035B00079F790E19A95F1F799B132E03A95F1F700
:1035C000000040E14A95F1F792FB992790F9922784
:1035D0002081920F90830895EF92FF920F931F9393
:1035E000CF93DF930F92CDB7DEB719828C017C01A8
:1035F000E60EF11C0E151F0561F481E09981911111
:1036000080E00F90DF91CF911F910F91FF90EF908D
:1036100008950E94B21ACE0101960E94C01AF801C4
:1036200081938F01E7CF529A5A9A089552985A9AE5
:10363000EA9AE9E6F0E080818F7C8083089561500A
:10364000770B91E001C0990F6A95EAF720E031E02D
:10365000911108C0222391F05A9A80E28A95F1F7DD
:103660005A980895492F482339F05A9A232740E25F
:103670004A95F1F79695ECCF5A98F9CF5A98EDCF35
:10368000FF920F931F93CF93DF93EC018C01060FF2
:10369000111DC017D10731F4DF91CF911F910F9108
:1036A000FF900895F9900E94BA1A68E08F2D0E9449
:1036B0001F1BEFCF1F920F920FB60F9211240F9383
:1036C0001F932F933F934F935F936F937F938F93AA
:1036D0009F93AF93BF93EF93FF93CF93DF930F929B
:1036E000CDB7DEB719820E94B21ACE0101960E94B0
:1036F000C01A082F069506950695282F2295257045
:10370000902F9570290F922F937026952695920FE2
:10371000982797708981982B09F05CC0043008F0D5
:1037200059C080E18A95F1F75A9A529A82E08A95B7
:10373000F1F700C05A9888E0089F80011124D80151
:10374000AB5FBE4F1696ED91FC9117973097A9F09D
:1037500060919F017091A00114962D913C91159755
:10376000260F371F11968D919C911297680F791F24
:1037700013964C9113978C910995F801EB5FFE4FCE
:103780006381662351F020919F013091A0018481D3
:103790009581820F931F0E94401B0E94BA1A80E1FC
:1037A0008A95F1F75A9852985A9A80E18A95F1F7DA
:1037B000F801EB5FFE4F6081662351F020919F017D
:1037C0003091A00181819281820F931F0E94EC1A97
:1037D0000E94B21A0F90DF91CF91FF91EF91BF91AC
:1037E000AF919F918F917F916F915F914F913F9199
:1037F0002F911F910F910F900FBE0F901F90189552
:103800000F931F93CF93DF93EC0104970CF04CC000
:10381000F894529A5A9885E08A95F1F700009C2F07
:10382000969595708C2F8570980F892F837096953B
:10383000969523E0CC0FDD1F2A95E1F7980F8E01B6
:10384000092B0E94BA1A00C068E0802F0E941F1B3B
:1038500080E18A95F1F752985A9A4A9B1EC087E0F8
:1038600090E04A991CC0FE01EB5FFE4F6381662326
:10387000F9F020919F013091A00184819581820F00
:10388000931F0E94EC1A811113C0529A5A9A78948D
:10389000DF91CF911F910F91089500C0DECF019766
:1038A00029F4529A5A9A789480E0F2CF00C0D9CF86
:1038B0000E94B21A80E28A95F1F75A98529A80E1F2
:1038C0008A95F1F7CB5FDE4F6881662351F0209136
:1038D0009F013091A00189819A81820F931F0E94DC
:1038E000401B0E94BA1A789481E0D2CF9093A30132
:1038F0008093A201089590937302809372020895B9
:103900000E946112811103C080916D020895E091BF
:103910007202F0917302309721F00190F081E02D56
:10392000099480E00895E0917202F091730230975B
:1039300021F00280F381E02D09940895E091720254
:10394000F0917302309739F022E0DC012C9304806F
:10395000F581E02D09940895209170023091710253
:103960002817390771F09093710280937002E091EB
:103970007202F0917302309721F00680F781E02DFA
:103980000994089520916E0230916F02281739072B
:1039900071F090936F0280936E02E0917202F09149
:1039A0007302309721F00084F185E02D0994089589
:1039B0009C012E5F3F4FAC01485F5F4F80E02417B2
:1039C000350709F40895F90191919F019923B9F3FD
:1039D0008F5FF5CF662349F0FC013296089621915E
:1039E000261729F0E817F907D1F780E0089581E05C
:1039F00008959C01FC0132969FEF80E041914617AB
:103A000051F09F3F19F4411101C0982F8F5F86300C
:103A1000A9F79F3F09F40895290F311D97FD3A95A5
:103A2000F90162830895FC013296089621912613CC
:103A300003C0DF0111971C92E817F907B9F7089541
:103A40000C94F91C0C94131D029626E0FC011192B3
:103A50002A95E9F7089508950C942B1D811105C04E
:103A600081E0809374020C942C1D82E0FACF83E0F5
:103A7000809374020C942C1D0C942E1D81E0809375
:103A800074020C942C1D0C943E1D089508950C9402
:103A9000461D089508950C94451DCF930E94491D1D
:103AA0000E94D7110E944A1DC0E08C2F0E94A410D2
:103AB000811105C0CF5FCA30C1F7CF91089581E071
:103AC000FCCF08951F921FB61F9211248F939F93CE
:103AD000AF93BF9380917502811113C080919F02B3
:103AE0009091A002A091A102B091A2024196A11DC5
:103AF000B11D80939F029093A002A093A102B09366
:103B0000A202BF91AF919F918F911F901FBE1F90F6
:103B100018958091A702843031F10E94D902109249
:103B2000750288E190E020E40FB6F894A8958093A0
:103B300060000FBE2093600083B7817F846083BFE5
:103B400083B7816083BF7894889583B78E7F83BF66
:103B50000FB6F894A895809160008861809360000A
:103B6000109260000FBE08950E94DD060C94DD02E5
:103B700082E084BD93E095BD9AEF97BD80936E007F
:103B800008952FB7F89480919F029091A002A09180
:103B9000A102B091A2022FBF08952FB7F8946091AF
:103BA0009F027091A0028091A1029091A2022FBF6A
:103BB00008959C014FB7F89480919F029091A002C4
:103BC000A091A102B091A2024FBF821B930B089556
:103BD000CF92DF92EF92FF922FB7F894C0909F029E
:103BE000D090A002E090A102F090A2022FBFA70106
:103BF0009601261B370B480B590BCA01B901FF90E0
:103C0000EF90DF90CF90089578941F921FB61F9287
:103C100011248F939F93AF93BF9380919F029091B4
:103C2000A002A091A102B091A2020196A11DB11D16
:103C300080939F029093A002A093A102B093A2024E
:103C4000BF91AF919F918F911F901FBE1F901895AC
:103C500081E08093E00080E28093D8001092C90058
:103C60008FE19EE40197F1F700C0000087E090EB40
:103C7000DC018093B0029093B102A093B202B093A2
:103C8000B30288E19CE00FB6F894A8958093600099
:103C90000FBE90936000FFCF809181020895089538
:103CA0009C0182E08093E9009FEF8091E8009150B1
:103CB00085FD06C085ED8A95F1F700009111F5CFDD
:103CC0008091E80085FF0CC050E040E066E070E0C5
:103CD000C9010E9476208091E8008E778093E800E9
:103CE0000895CF93DF93EC0181E08093E9008FEF9B
:103CF0009091E800815095FD06C095ED9A95F1F7F9
:103D000000008111F5CF8091E80085FF14C050E0DC
:103D100040E068E070E0CE010E9476208091E800EB
:103D20008E778093E80088E0FE01A9E7B2E0019079
:103D30000D928A95E1F7DF91CF91089580937602F5
:103D400070937802609377028091A702843001F526
:103D500082E08093E9008FEF9091E800815095FD1B
:103D600006C095ED9A95F1F700008111F5CF80918D
:103D7000E80085FF0DC050E040E063E070E086E7BA
:103D800092E00E9476208091E8008E778093E80090
:103D90000895BC0184E00C949E1EBC0183E00C9449
:103DA0009E1E8091A602811109C00E9406220E94D7
:103DB00063228091E20084608093E2000895109273
:103DC000A60208950C943E1D6091A30281E061114A
:103DD00001C080E00C94371D9091A70281E09430DF
:103DE00009F080E06091A3020C943C1D42E061EC7C
:103DF00081E00E94822142E261EC82E00E94822105
:103E00009091A70281E0943009F080E06091A302D4
:103E10000C942E1D8091A902833009F460C030F407
:103E20008130C9F1823009F49CC008958A3009F4C8
:103E300088C08B3009F46EC0893009F04FC0809182
:103E4000A802813209F04AC08091AC029091AD0283
:103E5000029708F043C08091E800877F8093E800D4
:103E60008091E80082FF36C09091F3008091F200CB
:103E7000029731F48091F100813011F0863021F405
:103E80008091F100809381028091E8008B7780938C
:103E9000E8000C94B6218091A802813AF9F480914F
:103EA000E800877F8093E8008091AC029091AD029A
:103EB000892B61F468E089E792E070E00E94C520F8
:103EC0008091E8008B778093E800089560E090E0AF
:103ED00080E0F3CF8091A7028111C2CF0895809135
:103EE000A802813AD9F78091AC029091AD02892B5A
:103EF000A9F78091E800877F8093E8008091E8002F
:103F000080FFFCCF809131018093F1008091E80027
:103F10008E77BDCF8091A802813201F78091AC02EB
:103F20009091AD02892BD1F68091E800877F809334
:103F3000E8000E94B6218091AA02809331010C947E
:103F4000DD068091A802813249F68091E800877FE2
:103F50008093E8000E94B6218091AB028093820298
:103F600008958091A802813A09F0B8CF8091E800C5
:103F7000877F8093E8008091E80080FFFCCF8091EC
:103F80008202C2CF84B7877F84BF0FB6F894A8950A
:103F900080916000886180936000109260000FBE85
:103FA00080E890E00FB6F8948093610090936100F0
:103FB0000FBE0C94431D0E9406220E946322E2EE73
:103FC000F0E080818460808378940C94EC2485E216
:103FD00091E00C947B1C8091A7028530A9F480911C
:103FE000A702853011F00C94B41D0E94891D8091A8
:103FF000A5028823A1F30E944D1D882381F30E940E
:1040000060200E94DD06EBCF089508950C940820EF
:10401000292F33272330310519F168F42130310578
:1040200009F444C02230310509F445C090E080E035
:1040300030E020E025C02132310549F1223231053E
:10404000A9F780E490E02EE833E061157105C1F036
:104050008BE790E023E133E06130710589F0E6CF32
:1040600099278130910581F0009729F00297F1F6A8
:10407000ECE8F2E002C0E2ECF2E0849190E09F0113
:10408000FA01318320830895E2EBF2E0F6CF89E074
:1040900090E028ED32E06115710591F389E090E040
:1040A00021EF32E06130710559F3C0CF82E190E039
:1040B00021E033E0E5CF8BE390E026EC32E0E0CF87
:1040C00080E189BD82E189BD09B400FEFDCF809108
:1040D000D8008F7D8093D8008091E000826080932B
:1040E000E0008091E00081FDFCCF0895AF92BF9287
:1040F000CF92DF92FF920F931F93CF93DF936C01C8
:10410000EB018A010E94D521F82E811123C00115EF
:10411000110539F0F80180819181C81BD90BC80EB7
:10412000D91EB12CA12C2097A9F08091E80085FD23
:1041300022C08091E8008E778093E8000115110578
:10414000A1F0F80180819181A80EB91EB182A082F0
:1041500085E0F82E8F2DDF91CF911F910F91FF9069
:10416000DF90CF90BF90AF9008950E94D521882313
:10417000D1F2F82EEFCFF60181916F018093F1001B
:104180002197FFEFAF1ABF0ACECFFC018091AE029C
:104190009091AF0286179707A0F06115710529F479
:1041A0009091E8009E779093E80090E0611571058A
:1041B00051F4911108C08091E80082FF34C080E082
:1041C0000895BC01F2CF8091A7028823C1F1853008
:1041D000C1F18091E80083FD30C08091E80082FD4C
:1041E000EACF8091E80080FFE1CF8091F300209139
:1041F000F200382F6115710519F02830310558F09B
:1042000091E02830310509F090E02091E8002E7708
:104210002093E800CBCF81918093F1006150710928
:104220002F5F3F4FE7CF8091A702882341F0853071
:1042300041F08091E80083FFBECF81E0089582E0E5
:10424000089583E00895FC018091AE029091AF0241
:1042500086179707A0F06115710529F48091E80091
:104260008E778093E80090E06115710551F491110B
:1042700008C08091E80082FF35C080E00895BC014D
:10428000F2CF8091A7028823C9F18530C9F18091CE
:10429000E80083FD31C08091E80082FDEACF809183
:1042A000E80080FFE1CF8091F3002091F200382FE9
:1042B0006115710519F02830310558F091E028306A
:1042C000310509F090E08091E8008E778093E80056
:1042D000CBCF84918093F1003196615071092F5FAB
:1042E0003F4FE6CF8091A702882341F0853041F00F
:1042F0008091E80083FFBDCF81E0089582E00895BA
:1043000083E00895982F973028F08F708093E9000C
:1043100081E008959093E900242F762F50E09817BC
:1043200031F07091EC002091ED005091F00021FDF2
:1043300002C09F5FE8CF3091EB003E7F3093EB00EF
:104340003091ED003D7F3093ED003091EB00316016
:104350003093EB007093EC002093ED005093F0004D
:104360002091EE0027FDE5CF80E008958091A8021E
:1043700087FF13C08091E80082FF06C08091E800AB
:104380008B778093E80004C08091A7028111F2CF5F
:1043900008958091A7028823D9F38091E80080FFD7
:1043A000F8CF8091E8008E77ECCF2091E400309137
:1043B000E50095E6A9012091EC00822F817020FF95
:1043C00006C08091E80080FF06C080E0089520913B
:1043D000E80022FD1AC08091A702882389F0853069
:1043E00089F08091EB0085FD0FC02091E4003091B1
:1043F000E50042175307F9F29150E1F684E0089581
:1044000082E0089583E0089581E008950E94742277
:104410000E947C22E0EEF0E0808181608083E8ED04
:10442000F0E080818F77808319BCA7EDB0E08C919C
:104430008E7F8C9380818F7E80831092A602089558
:104440000F931F93CF93DF930E9474220E947C22CC
:10445000C8EDD0E088818F778883888180688883E1
:1044600088818F7D888319BC1092A7021092A302C5
:104470001092A5021092A40200EE10E0F8018081D3
:104480008B7F808388818160888342E060E080E068
:104490000E948221E1EEF0E080818E7F8083E2EE57
:1044A000F0E0808181608083808188608083F80172
:1044B00080818E7F8083888180618883DF91CF9126
:1044C0001F910F910895E8EDF0E080818F7E808349
:1044D000E7EDF0E080818160808384E082BF81E04D
:1044E0008093A6020C942022E8EDF0E080818E7F7C
:1044F00080831092E20008951092DA001092E10099
:1045000008951F920F920FB60F9211242F933F938D
:104510004F935F936F937F938F939F93AF93BF93CB
:10452000EF93FF938091E10082FF0BC08091E20046
:1045300082FF07C08091E1008B7F8093E1000E94A1
:10454000EB248091DA0080FF19C08091D80080FFB1
:1045500015C08091DA008E7F8093DA008091D900B7
:1045600080FF96C080E189BD82E189BD09B400FE6B
:10457000FDCF81E08093A7020E94D11E8091E100CF
:1045800080FF19C08091E20080FF15C08091E20099
:104590008E7F8093E2008091E20080618093E20050
:1045A0008091D80080628093D80019BC85E0809308
:1045B000A7020E94E41E8091E10084FF2BC080913D
:1045C000E20084FF27C080E189BD82E189BD89B511
:1045D000982F917080FFFBCF8091D8008F7D8093C2
:1045E000D8008091E1008F7E8093E1008091E2000D
:1045F0008F7E8093E2008091E20081608093E200F0
:104600008091A302882309F449C084E08093A70223
:104610000E94EC1E8091E10083FF29C08091E2009E
:1046200083FF25C08091E100877F8093E10082E0D5
:104630008093A7021092A3028091E1008E7F809365
:10464000E1008091E2008E7F8093E2008091E200A1
:1046500080618093E20042E060E080E00E9482217D
:104660008091F00088608093F0000E94E21EFF912C
:10467000EF91BF91AF919F918F917F916F915F91DA
:104680004F913F912F910F900FBE0F901F90189553
:1046900019BC1092A7020E94DF1E70CF8091E30028
:1046A00087FD93E09093A702B3CF1F920F920FB6AE
:1046B0000F9211242F933F934F935F936F937F93A8
:1046C0008F939F93AF93BF93CF93DF93EF93FF931A
:1046D000D091E900DF708091EC00C82FC17080FD9F
:1046E000C0E81092E9008091F000877F8093F0008D
:1046F00078940E9499231092E9008091F0008860DC
:104700008093F000CD2BCF70C093E900FF91EF9123
:10471000DF91CF91BF91AF919F918F917F916F91D9
:104720005F914F913F912F910F900FBE0F901F906F
:1047300018951F93CF93DF93CDB7DEB7AA970FB627
:10474000F894DEBF0FBECDBF88EA92E02091F10061
:10475000FC012193CF01F2E0803B9F07B9F70E9453
:104760000A1F8091E80083FF1EC18091A8029091EA
:10477000A9029A3008F017C1E92FF0E0E355FA4D8D
:104780000C942D25803899F0823809F00CC1809165
:10479000AC028F70873008F006C18093E9008091E9
:1047A000EB0085FB882780F91092E90006C0809114
:1047B000A4029091A502911182609091E800977FE8
:1047C0009093E8008093F1001092F1008091E8004E
:1047D0008E77E5C0882309F4D3C0823009F0E3C0A6
:1047E0008091AA028111D6C08091AC028F702FEF08
:1047F000280F263008F0D7C08093E9002091EB0005
:1048000020FFC8C0933031F48091EB008062809328
:10481000EB00C0C09091EB0090619093EB0021E021
:1048200030E001C0220F8A95EAF72093EA00109247
:10483000EA008091EB008860EACF8111B4C010914A
:10484000AA021F778091E3008078812B8093E30098
:104850008091E800877F8093E8000E94B6218091D4
:10486000E80080FFFCCF8091E30080688093E30044
:1048700082E0111183E08093A70295C080588230B6
:1048800008F091C08091AA029091AB028C3D23E088
:104890009207A1F583E08A838AE289834FB7F8946F
:1048A000DE01139620E03EE051E2E32FF0E050936A
:1048B0005700E49120FF03C0E295EF703F5FEF7077
:1048C0008E2F90E0EA30C0F0C7968D939D932F5FB6
:1048D000243159F74FBF8091E800877F8093E8002B
:1048E0006AE270E0CE0101960E94C5208091E80046
:1048F0008B778093E80057C0C096E7CF6091AC02F9
:104900007091AD02AE014F5F5F4F0E940620BC0167
:10491000892B09F448C09091E800977F9093E800B4
:1049200089819A810E942321E1CF8038E1F580912D
:10493000E800877F8093E8008091A3028093F100D4
:1049400045CF811130C09091AA02923060F58091DC
:10495000E800877F8093E8009093A3020E94B6212D
:104960008091A302882311F084E005C08091E300C8
:1049700087FDFACF81E08093A7020E94F61E13C044
:104980008091AA02813079F481E0933009F080E0CF
:104990008093A5021092E9008091E800877F8093C0
:1049A000E8000E94B6218091E80083FF0AC0809150
:1049B000E800877F8093E8008091EB00806280931D
:1049C000EB00AA960FB6F894DEBF0FBECDBFDF9105
:1049D000CF911F9108950895CF938091A7028823C6
:1049E000A1F0C091E900CF709091EC00892F817007
:1049F00090FD80E8C82B1092E9008091E80083FDCB
:104A00000E949923CF70C093E900CF9108950E942E
:104A100006221092A7020895E8EDF0E080818061FF
:104A200080838AE18A95F1F700C08091D900817076
:104A3000089597FB072E16F4009407D077FD09D050
:104A40000E94332507FC05D03EF4909581959F4F39
:104A50000895709561957F4F0895EE0FFF1F0590A3
:104A6000F491E02D0994AA1BBB1B51E107C0AA1FBA
:104A7000BB1FA617B70710F0A61BB70B881F991FFF
:104A80005A95A9F780959095BC01CD010895FB0139
:104A9000DC0104C08D910190801921F441505040F7
:104AA000C8F7881B990B0895FB01DC0102C0019037
:104AB0000D9241505040D8F70895F999FECF92BD1C
:104AC00081BDF89A992780B50895A8E1B0E042E049
:104AD00050E00C949125262FF999FECF92BD81BD0F
:104AE000F89A019700B4021639F01FBA20BD0FB62C
:104AF000F894FA9AF99A0FBE08950396272F0E9408
:104B00006C250E946B25252F0E946C25242F0C9468
:104B10006C250196272F0E946C250C946B25DC01D7
:104B2000CB01FC01F999FECF06C0F2BDE1BDF89AB8
:104B3000319600B40D9241505040B8F70895F89462
:104B4000FFCF9E049E04CF04CF0462057E05FE04C1
:104B5000FE048905150624062406C223EA23D3246D
:0E4B6000EA23D3241D243E24D3249524A1242B
:104B6E00C800180201000000010000000000000053
:104B7E000501000000040600000000000028085097
:104B8E00011E0A14014C1E711E501ECD1EC91E4F51
:104B9E001E01E200E900EA00B500B600B700CD0044
:104BAE008301CC008A019201940121022302240286
:104BBE002502260227022A02B300B4006F007000FD
:104BCE00818283E200E900EA00B500B600B700CDAD
:104BDE00008301CC008A0192019401210223022458
:104BEE00022502260227022A02B300B4006F0070CB
:104BFE0000818283F4F5F6F73133946697C6343D1F
:024C0E000200A2
:00000001FF
