:100000000C9460020C9498020C9498020C947D223B
:100010000C9498020C9498020C9498020C949802F8
:100020000C9498020C9498020C94AC1C0C94681CD0
:100030000C94A91D0C9498020C9498020C949802AC
:100040000C9498020C9498020C9498020C949802C8
:100050000C9498020C94851D0C9498020C949802B0
:100060000C9498020C9498020C9498020C949802A8
:100070000C9498020C9498020C9498020C94980298
:100080000C9498020C9498020C9498020C94980288
:100090000C9498020C9498020C9498020C94980278
:1000A0000C9498020C9498020C9498020501090291
:1000B000A10185020901A1000509190129081500FE
:1000C0002501950875018102050109300931158165
:1000D000257F95027508810609381581257F9501D0
:1000E00075088106050C0A38021581257F95017572
:1000F000088106C0C005010980A101850319012AF4
:10010000B700150126B700950175108100C0050CD8
:100110000901A101850419012AA002150126A002E6
:10012000950175108100C00660FF0961A101096297
:10013000150026FF00952075088102096315002629
:10014000FF00952075089102C005010906A101056F
:100150000719E029E7150025019508750181029529
:1001600001750881010507190029FF150026FF0008
:100170009506750881000508190129059505750181
:100180009102950175039101C0000000000000007C
:10019000000000000000000000000000000000005F
:1001A000000000000000000000000000007E0F00C2
:1001B000D4FFFFFFC700000078000000000000002F
:1001C000002A2B28000000000000000000000000B2
:1001D0000000000029000000002C1E3420212224F1
:1001E000342627252E362D3738271E1F202122237F
:1001F0002425263333362E37381F04050607080911
:100200000A0B0C0D0E0F10111213141516171819D6
:100210001A1B1C1D2F3130232D3504050607080934
:100220000A0B0C0D0E0F10111213141516171819B6
:100230001A1B1C1D2F3130354C29001E001F0020B9
:1002400000210022002B0014001A000800150017DE
:1002500000E00004001600070009000A00E1001D8C
:10026000001B0006001900050000000000E300016B
:10027000512C002F024C00270026002500240023CB
:10028000002A00130012000C0018001C0034003378
:10029000000F000E000D000B00280038003700365C
:1002A000001000110000000000E60002512C003098
:1002B000023A003B003C003D003E003F00010001CF
:1002C0000001000100010001000100010001000126
:1002D0000001000100010001000100010001000116
:1002E0000000000000010001000100010045004481
:1002F00000430042004100400001000100010001F4
:100300000001000100010001004F005200510050A7
:1003100000010001000100010001000100000000D7
:1003200000010001000100010001000100010001C5
:10033000000100010001001E021F02200221022212
:1003400002010001000100010001000100010001A3
:100350000001000100010001000000000001000197
:100360000001000100010001000100010001000185
:100370000001002702260225022402230235003153
:100380000030002F002E002D003502310230022FE8
:10039000022E022D020000000001000100010001F8
:1003A0000001000100010001000100010001000145
:1003B0000001000100010001000100010001000135
:1003C0000001000100010001000100010001000125
:1003D0000000000000010001000100010001000117
:1003E0000001000100010001000100010001000105
:1003F00000010001000100010001000100010001F5
:1004000000010001000100010001000100000000E6
:1004100000010001000100010009025B000301006E
:10042000A0FA0904000001030101000921110100E3
:1004300001224000070581030800010904010002B0
:10044000030000000921110100012222000705829A
:100450000320000107050303200001090402000135
:1004600003000000092111010001227B000705841F
:10047000032000011201000200000008454F46451C
:1004800000010102000124034500720067006F00B3
:10049000460069006E00650020004B006500790091
:1004A00062006F0061007200640000000E036F00C4
:1004B00072006D0063006100740000000403090411
:1004C00011241FBECFEFDAE0DEBFCDBF04B603FEBE
:1004D00018C08091670290916802A0916902B09162
:1004E0006A028730904BA740B04B59F410926702D4
:1004F000109268021092690210926A02E0E0F8E33A
:10050000099511E0A0E0B1E0E2EAF8E402C005904C
:100510000D92AA37B107D9F722E0AAE7B1E001C0EE
:100520001D92A736B207E1F70E94D01D0C94262435
:100530000C940000FC01AC014B5F5F4F8FEF91E327
:100540002191822728E030E087FF09C0880F8927A2
:1005500021503109C9F7E417F50791F70895880F7D
:10056000F7CFE8EDF0E080818E7F80831092E2008B
:100570001092DA001092E100A0EEB0E08C91816060
:100580008C9380818F77808319BCA7EDB0E08C912C
:100590008E7F8C9380818F7E808310924C02089591
:1005A0002091E4003091E50095E6A9012091EC004E
:1005B000822F817020FF06C08091E80080FF06C076
:1005C00080E008952091E80022FD1AC08091590230
:1005D000882389F0853089F08091EB0085FD0FC07C
:1005E0002091E4003091E50042175307F9F2915051
:1005F000E1F684E0089582E0089583E0089581E0C3
:100600000895EF92FF920F931F93CF937C018B017C
:100610000E94D002C82F811117C08091E80085FD8B
:100620000BC08091E8008E778093E8000E94D00292
:10063000882399F3C82F08C0F70181917F01809327
:10064000F1000150110949F78C2FCF911F910F91A3
:10065000FF90EF90089580915B0287FF13C0809117
:10066000E80082FF06C08091E8008B778093E80065
:1006700004C0809159028111F2CF089580915902EE
:100680008823D9F38091E80080FFF8CF8091E800BB
:100690008E77ECCF982F9093E900242F762F50E09F
:1006A000891731F07091EC002091ED005091F0002D
:1006B00021FD07C09F5F973071F78093E90081E0CB
:1006C00008953091EB003E7F3093EB003091ED00C8
:1006D0003D7F3093ED003091EB0031603093EB00C3
:1006E0007093EC002093ED005093F0002091EE0009
:1006F00027FDE0CF80E00895CF92DF92EF92FF9246
:100700000F931F93CF93DF93C8EDD0E088818F7E46
:100710008883E7EDF0E080818160808384E082BFA0
:1007200081E080934C0288818E7F888302EE10E006
:10073000F80110821092DA0081EEC82ED12CF60159
:10074000108288818F7788838881806888838881F8
:100750008F7D888319BC1092590210925A02109210
:1007600058021092570290EEE92EF12CF701808189
:100770008B7F808388818160888342E060E080E0B5
:100780000E944A03F60180818E7F8083F801808178
:1007900081608083808188608083F70180818E7F83
:1007A0008083888180618883DF91CF911F910F9131
:1007B000FF90EF90DF90CF900895FC01809161024F
:1007C0009091620286179707A0F06115710529F4D0
:1007D0009091E8009E779093E80090E06115710594
:1007E00051F4911108C08091E80082FF34C080E08C
:1007F0000895BC01F2CF809159028823C1F1853060
:10080000C1F18091E80083FD30C08091E80082FD55
:10081000EACF8091E80080FFE1CF8091F300209142
:10082000F200382F6115710519F02830310558F0A4
:1008300091E02830310509F090E02091E8002E7712
:100840002093E800CBCF81918093F1006150710932
:100850002F5F3F4FE7CF80915902882341F08530C9
:1008600041F08091E80083FFBECF81E0089582E0EF
:10087000089583E00895089580914E0208959C01A3
:100880004FB7F8948091450290914602A09147029B
:10089000B09148024FBF821B930B08952FB7F89475
:1008A0006091450270914602809147029091480202
:1008B0002FBF08952FB7F89480914502909146027A
:1008C000A0914702B09148022FBF089520914202A3
:1008D000309143022817390771F0909343028093B7
:1008E0004202E0914002F0914102309721F00084F1
:1008F000F185E02D0994089520913E0230913F0248
:100900002817390771F090933F0280933E02E091DF
:100910004002F0914102309721F00680F781E02DEE
:10092000099408950E945A049C0190913802809184
:100930003902982B21F030933502209334029091A4
:100940003A0280913B02982B21F03093330220939E
:100950003202E0914002F0914102309749F082E08A
:10096000809336020480F581E02D86E392E00994BD
:10097000089540913802803F59F48091390287FFF1
:100980000DC01092390241110BC01092300208C004
:10099000813F81F48091390218169CF3442381F041
:1009A00080913A0290913B02892B09F05AC0109233
:1009B0002F020895823F49F447FFF0CF109238028A
:1009C000809139028111ECCFE0CF833F19F41416E6
:1009D000ACF3E4CF90913A02893F29F41916F4F66A
:1009E00010923A02DBCF8A3F19F497FFD7CFF8CFA6
:1009F00090913B028B3F29F497FFD0CF10923B029E
:100A0000CDCF8C3F19F41916CCF3C8CF9CE0980FCA
:100A1000953090F4845F990B21E030E0B90102C079
:100A2000660F771F8A95E2F7CB0180959091370288
:100A3000892380933702B2CF8D3F31F48091310208
:100A40008E7F80933102AACF8E3F21F480913102B4
:100A50008D7FF7CF8F3F09F0A1CF809131028B7F3F
:100A6000F0CF08958091310280FF0CC060912A017F
:100A700070E075956795759567956115710549F1F4
:100A8000862F089581FF06C060912A0170E0759558
:100A90006795F3CF60912A0182FD0BC090912F02E0
:100AA0009923A1F06091290180912A01961738F0CD
:100AB000682F70E06038710500F38FE70895899F13
:100AC000C001112470E00E949923F4CF61E070E02E
:100AD000D7CF81E008958091310280FF0DC06091F1
:100AE000280170E0660F771F6038710570F5611599
:100AF000710569F1862F089581FF07C06091280173
:100B000084E0689FB0011124EFCF82FF04C06091A0
:100B1000280188E0F6CF80913002882399F0209157
:100B20002701609128018217A0F7869FC001112438
:100B300033E0880F991F3A95E1F7622F70E00E9429
:100B40009923D2CF68E070E0D5CF8FE7089581E098
:100B50000895803F31F40E946B058195809339029E
:100B60000895813F19F40E946B05F8CF823F31F45C
:100B70000E946B058195809338020895833F19F494
:100B80000E946B05F8CF893F29F40E9432058093BB
:100B90003A0208958A3F21F40E9432058195F7CFE9
:100BA0008B3F31F40E943205819580933B0208957A
:100BB0008C3F19F40E943205F8CF9CE0980F9530D5
:100BC00070F4845F990B21E030E001C0220F8A9518
:100BD000EAF780913702822B8093370208958D3F88
:100BE00031F48091310281608093310208958E3F0B
:100BF00021F4809131028260F7CF8F3FB9F7809165
:100C000031028460F1CF80E00895F894E82FE295F6
:100C1000EF70F0E031A1282F2F7081E090E001C04B
:100C2000880F2A95EAF7982F9095932391A392A184
:100C3000892B82A3789408959091180292FF06C0A0
:100C4000282F28712830F9F4877F846093FF06C02D
:100C5000282F28712831F1F4877E846120911902B0
:100C600020FF06C0382F38713830D9F4877F816073
:100C700021FF06C0282F28712831D1F4877E816199
:100C800094FD877E0895282F24712430F9F68B7FF8
:100C90008860DCCF282F2471243101F78B7E886196
:100CA000DDCF382F3171313019F78E7F8860E0CF7A
:100CB000282F2171213121F78E7E8861E1CFCF93DA
:100CC000DF93EC0182389105A9F1D8F581339105C4
:100CD00009F496C048F58932910509F48AC08A97CB
:100CE00009F495C0C11521E5D20708F0BCC0C115B3
:100CF00030E5D30708F014C1C83ED10508F09CC008
:100D0000C03ED10560F5C83AD10508F087C0C53AA4
:100D1000D10508F0FDC0C130D10509F12097F9F0E7
:100D2000C430D105E0F440C08533910509F45AC0C0
:100D3000C997C1F680911802837089F0C0EED0E0A7
:100D40000EC0833E910599F170F4803E910501F14A
:100D5000823E910539F68091180282FD21C0CE01B4
:100D6000DF91CF910895863E910561F1873E91050F
:100D700071F1843E910509F0B5CF8091190281FF90
:100D8000EECF80911802C7EED0E084FD0DC0E7CF12
:100D90008091180280FD12C19091190290FFDFCF5F
:100DA000C3EED0E084FFDBCFD0E0C0E0D8CF8091AD
:100DB000180282FD06C19091190290FDBFCF84FFF9
:100DC000CECFF2CF8091180283FDDDCFC8CF8091C6
:100DD000180283FDF9C09091190291FFF0CFC4EE83
:100DE000D0E0BDCF8091180285FFB9CFC9E2D0E035
:100DF000B6CF8091180285FFB2CFC5E3D0E0AFCF68
:100E00008091180286FFABCFCAE2D0E0A8CF8091D4
:100E1000180286FFA4CFC1E3D0E0A1CFCF3BD1051C
:100E200018F6C85AD0E0CC0FDD1FC15DDE4F099027
:100E3000D881C02DD46493CFC11540E2D40758F4B3
:100E4000C11581E0D80708F08ACFC03FD10508F46A
:100E5000ABCFD06584CFC11590E4D90708F4A4CFF7
:100E6000DF70D06A7CCFC11525E5D20700F5C1152A
:100E700034E5D30708F08AC0C11543E5D40708F06C
:100E800071C0C11582E5D80708F467C0CE01837030
:100E9000992721E030E002C0220F331F8A95E2F744
:100EA000C695C69580E2C89FE001112452C0C115C5
:100EB00099E5D907A8F4C11528E5D20708F06BC059
:100EC000C11536E5D30708F06FCF8C2F0E941C06A2
:100ED000C82FD0E0DC2FCC27CC27DF71D0623FCFEA
:100EE000C1154AE5D40708F45BC0CE0190568115C0
:100EF000904208F059CF8D2F8F710E941C0690E010
:100F0000982F882788279F719C012C2BE901E6CF19
:100F1000C55AD0E0C45DDE4FC881D0E0D0641FCF99
:100F2000CE01E4E096958795EA95E1F783702C2F42
:100F300026952695237040E2249F90011124382B9A
:100F40008C2F8370C1E0D0E002C0CC0FDD1F8A95EA
:100F5000E2F7C22BD32BDC6802CFDC2FCC27C16F8A
:100F6000D06AFDCECE018370992721E030E002C027
:100F7000220F331F8A95E2F7C695C69590E2C99F66
:100F8000E0011124C22BD32BDA68E9CEDC2FCC2769
:100F9000C46FD06AE4CEDC2FCC27C06FD06ADFCE1E
:100FA0008C2F8F700E941C0634E0D695C7953A9519
:100FB000E1F7CF709C2FEC01D069D1CEC9E3D0E02E
:100FC000CECEC2EED0E0CBCEC6EED0E0C8CE809181
:100FD000E30181111092E301089580959091E2015F
:100FE00098239093E2010895EEE7F1E0919189133F
:100FF00003C0DF0111971C9291E0E438F907B1F7C3
:101000000895AEE7B1E0EFEF90E02D91821751F037
:10101000EF3F19F4211101C0E92F9F5F9630A9F726
:10102000EF3F09F408950E2E000CFF0BE458FE4F1D
:10103000828308958091D7019091A601981301C0F1
:1010400008958F5F8770FACFE92FEE0FE90FEE0F4B
:101050008E0F982F977086958695869523E0829FB0
:10106000F0011124E857FE4F50E040E080E021916C
:1010700030E0092E02C0369527950A94E2F72170D8
:101080003327042E01C0220F0A94EAF7822B4F5F08
:101090005F4F4330510559F70895E92FEE0FE90FDF
:1010A000EE0F8E0F982F977041E001C0440F9A9574
:1010B000EAF786958695869593E0899FF00111243D
:1010C000E857FE4F30E020E070E05191DF011197CA
:1010D000CB01022E02C0969587950A94E2F78170A3
:1010E00081958527842385278C932F5F3F4F23305D
:1010F000310559F708958093490270934B0260932C
:101100004A02809159028430F9F48093E9008FEF0C
:101110009091E800815095FD06C095ED9A95F1F704
:1011200000008111F5CF8091E80085FF0DC050E0EF
:1011300040E063E070E089E492E00E940103809166
:10114000E8008E778093E8000895BC0184E00C9459
:101150007B08BC0183E00C947B089C0184E08093B5
:10116000E9009FEF8091E800915085FD06C085ED74
:101170008A95F1F700009111F5CF8091E80085FF85
:101180000CC050E040E066E070E0C9010E9401033D
:101190008091E8008E778093E8000895CF93DF93E5
:1011A000EC0181E08093E9008FEF9091E80081509D
:1011B00095FD06C095ED9A95F1F700008111F5CFE8
:1011C0008091E80085FF14C050E040E068E070E0E6
:1011D000CE010E9401038091E8008E778093E800A1
:1011E00088E0FE01AFE4B2E001900D928A95E1F74C
:1011F000DF91CF91089581E08093E00080E28093B9
:10120000D8001092C9008FE19EE40197F1F700C069
:10121000000087E090EBDC01809367029093680206
:10122000A0936902B0936A0288E19CE00FB6F8943B
:10123000A895809360000FBE90936000FFCFAF929F
:10124000BF92CF92DF92EF92FF920F931F93CF93B3
:10125000DF937C015B016A018091070201E010E0ED
:101260008A3010F40AE010E0C1E0D0E0F894B50153
:10127000C701F60109957894811104C021960C17D5
:101280001D075CF4DF91CF911F910F91FF90EF90BC
:10129000DF90CF90BF90AF900895CC9F9001CD9FED
:1012A000300D300D112490E080E045E34A95F1F7D0
:1012B0000000019682179307C1F7D8CF8091EF0104
:1012C000811110C08091D80080618093D8008AE19C
:1012D0008A95F1F700C08091D90080FF0AC081E0B3
:1012E0008093EF0181E09091EF01913009F080E06F
:1012F000089582E08093EF010E94B102109259029A
:10130000F1CF0E945E09882351F0E0914002F091F4
:101310004102309721F00190F081E02D099480E0A6
:101320000895CF93DF93C7E0D2E060E0CE010E9442
:10133000DC232196C11584E0D807B9F7DF91CF915E
:1013400008956F927F928F929F92AF92BF92CF92A9
:10135000DF92EF92FF920F931F93CF93DF9389E376
:10136000C82E82E0D82E9BEAE92EF12CE701C8575F
:10137000D10936011BC0F50185909490692DC801F3
:101380000E94DC23682DC80101960E94DC2382E0C4
:10139000A80EB11C0E5F1F4FC017D10761F78CE07C
:1013A000680E711C2C96CE15DF0529F08E010C50AD
:1013B00011095301E0CF7E0188E7E80EF11C88E7B0
:1013C000C80ED11C8BE8E81682E0F80679F6DF91AA
:1013D000CF911F910F91FF90EF90DF90CF90BF9032
:1013E000AF909F908F907F906F900895CF93C82F6C
:1013F0006FEF811163E283E290E00E94DC236FEFE4
:10140000C11161E084E290E00E94DC236FEFC11122
:1014100062E185E290E0CF910C94DC2380E00E94B1
:10142000F60960E086E290E00E94DC230E94A109B8
:101430000E94910981E00C94F6090F931F93CF93BA
:10144000DF93C42FD0E0CC0FDD1F2CE0629FC00DD6
:10145000D11D112438E7839FC00DD11D1124CE0169
:1014600087960E94CE23082F10E0102F0027CE0170
:1014700088960E94CE239801282BC901DF91CF9135
:101480001F910F910895462F843038F47A3028F454
:10149000663018F4672F0C941D0A90E080E00895E0
:1014A000CF92DF92FF920F931F93CF93DF936C0144
:1014B000009166028091E401082BC7E0D0E010E0C3
:1014C000FC2EC8010C2E02C0959587950A94E2F770
:1014D00080FD0CC02197A0F7F12C8F2DDF91CF91CB
:1014E0001F910F91FF90DF90CF900895B6018C2F40
:1014F0000E94430A0E945F06019761F3EECFCF93EB
:10150000DF93EC010E94500ABE010E94430ADF9162
:10151000CF910C945F06FC01808191810E947F0A2B
:1015200092959F70963091F058F4925F9F70923030
:1015300058F4803F19F030F4883E30F481E008958B
:101540009A5FF4CF843FD1F380E00895883EB0F3F2
:10155000813FD1F7F3CF83E290E00E94CE23833224
:1015600089F484E290E00E94CE23813059F485E230
:1015700090E00E94CE2391E0823109F090E0892F23
:101580008170089580E0FCCFCF9384E090E00E94CA
:10159000CE23C82F82E290E00E94CE23982F8C2F7A
:1015A000CF9108950F931F93CF93DF9300D000D076
:1015B000CDB7DEB74091030250910402609105025D
:1015C000709106022FB7F8948091450290914602DF
:1015D000A0914702B09148022FBF841B950BA60B28
:1015E000B70B11E084369105A105B10590F10E9479
:1015F0005E098823C1F10E944E046E5F7F4F8F4FBA
:101600009F4F69837A838B839C8380911101909192
:10161000120187509E4F4091100150E04530510516
:1016200010F044E050E0BE016F5F7F4F0E941D2428
:1016300082E090E00E942323182F882351F00E941B
:101640004E0460930302709304028093050290930A
:101650000602812F0F900F900F900F90DF91CF9186
:101660001F910F9108950E944E040091080210915D
:10167000090220910A0230910B02600F711F821F34
:10168000931FBBCFEF92FF921F93CF93DF9300D0B6
:1016900000D000D0CDB7DEB77B0190E080E00E94A3
:1016A0002323182F882309F480C04091030150E0C0
:1016B0004115510511F041E050E060910401709135
:1016C000050167507E4FCE0106960E941D24409171
:1016D000F5015091F6016091F7017091F8012FB773
:1016E000F8948091450290914602A0914702B091F2
:1016F00048022FBF841B950BA60BB70B84369105B0
:10170000A105B10540F48AEF91E00E949A029E8102
:10171000891709F44AC081E090E00E9423238111D7
:1017200016C010E085E0E0EFF1E0D70101900D92E6
:101730008A95E1F7812F26960FB6F894DEBF0FBE8B
:10174000CDBFDF91CF911F91FF90EF900895409111
:101750000B0150E04630510510F045E050E060913B
:101760000C0170910D0167507E4FCE0101960E94D1
:101770001D248AEF91E00E949A029E818913D1CFA5
:101780000E944E046093F5017093F6018093F70177
:101790009093F80185E0FE013196A0EFB1E0019051
:1017A0000D928A95E1F711E0BDCF85E0EAEFF1E017
:1017B000DE01119601900D928A95E1F71111EACFA1
:1017C000B1CF7F928F929F92AF92BF92CF92DF92D2
:1017D000EF92FF920F931F93CF93DF93CDB7DEB7B6
:1017E0002F970FB6F894DEBF0FBECDBF8E010F5FEF
:1017F0001F4F8AE0D8011D928A95E9F78FE5C82E20
:1018000081E0D82EF12CE12CAA24A394B12C2AE655
:10181000822E21E0922EF60181916F018F3F09F413
:1018200042C0F894E82FE295EF70F0E021A18F70AC
:10183000A50102C0440F551F8A95E2F7CA01922FF5
:10184000982B91A392A18095892382A3789400C0BC
:10185000E4E6F1E0712C31E021912F3F09F47AC0E8
:10186000A22FA295AF70B0E090968C9190E02F706F
:1018700002C0959587952A95E2F780FD6BC0832F6E
:10188000782A330F8E169F0639F7F601319780813B
:101890008F3F11F00E94050650EA5A95F1F7F801C2
:1018A000EE0DFF1D70828FEFE81AF80AA5E0EA1628
:1018B000F10409F0B0CF4AE050E0B8018CE092E0CA
:1018C0000E9410247C01892B41F08AE0F801ACE0F1
:1018D000B2E001900D928A95E1F710911702E114A0
:1018E000F104D1F181E08093E7010E945A049093C2
:1018F000E6018093E5018091E5019091E6010E9467
:101900003F04059778F0ACE0B2E0E12FF0E0EB5D4A
:10191000FD4F81E192E02D9121938A179B07D9F722
:101920001092E70181E090E0EF28D1F02F960FB6FA
:10193000F894DEBF0FBECDBFDF91CF911F910F9105
:10194000FF90EF90DF90CF90BF90AF909F908F90DF
:101950007F90089580E094CF8091E7018111CBCFF3
:101960000E945E09F82EE0911702882309F468C0EE
:101970006E01BBE0CB0ED11C85E0D6011D928A958D
:10198000E9F70E2F10E00B5D1D4F809107028A30A2
:1019900020F542E45BE0B601C8010E941F098823DC
:1019A00059F142ED5AE0B601C8010E941F0988238F
:1019B00019F1109207028091160290E045E050E084
:1019C000B6018B5D9D4F0E94102421E02093EE0113
:1019D000892B49F5F12C8F2DA9CF8091E8019091A9
:1019E000E9010E943F04843F914098F68091EE0106
:1019F000811112C080E09ACF809107028F3F29F0B9
:101A00008F5F809307028A30B0F20E945A0490934D
:101A1000E9018093E801EACF85E0F60111928A9509
:101A2000E9F71092EE01A0911602B0E0AB5DBD4F58
:101A300085E0FE013B9601900D928A95E1F7CBCFB0
:101A4000F0E0EB5DFD4FF89485E0AAEFB1E0019086
:101A50000D928A95E1F78AEF91E00E949A028093B5
:101A6000F9017894F894C090FF01D0900002E090C2
:101A70000102F09002028091EA019091EB01A091A5
:101A8000EC01B091ED01C816D906EA06FB06D1F0CB
:101A9000C092EA01D092EB01E092EC01F092ED01EC
:101AA0000E945E0981110EC00E944E04C61AD70A18
:101AB000E80AF90AC0920802D0920902E0920A02EA
:101AC000F0920B02789496CF8091E2019091E1011F
:101AD000892B80937C019091E301992391F0892BCC
:101AE00080937C0120E08EE791E0FC013191CF01F1
:101AF00031112F5FF1E084389F07B9F721110E945F
:101B0000E70748E050E069ED71E08CE791E00E9462
:101B10001024892BA9F088E0ECE7F1E0A9EDB1E011
:101B200001900D928A95E1F7E0914002F091410217
:101B3000309731F00280F381E02D8CE791E0099439
:101B4000089590E080E00E947C0490E080E00E9494
:101B500066041092E1010E94640D86E0E6E3F2E083
:101B6000DF011D928A95E9F71092300210922F0240
:101B7000109231020C949204809366020C94A10D91
:101B800080916602982F9670963019F488600C94B4
:101B9000BC0D877FFCCF21E030E001C0220F8A9589
:101BA000EAF720958091660282230C94BC0D9091F7
:101BB000D801809589238093D801282F277091F42C
:101BC000282F082E000C330B9217130659F0909112
:101BD000190292FD07C08595859585950E94CB0DCC
:101BE0001092D8010895CF93C0911902C2FB992792
:101BF00090F9981799F080FBC2F9C093190260918F
:101C0000180284E090E00E94DC236C2F82E290E0D6
:101C10000E94DC2382E0CF910C94D70DCF910895E0
:101C200021E030E001C0220F8A95EAF78091660238
:101C3000822B0C94BC0D8093E4010C94A10D1092A6
:101C4000E201EEE7F1E086E0DF011D928A95E9F717
:101C50000C94A10D1F93CF93DF93CDB7DEB7AA9756
:101C60000FB6F894DEBF0FBECDBF8BE592E020919A
:101C7000F100DC012D93CD01B2E083369B07B9F76B
:101C800080915C02833009F472C0B8F4813009F4A9
:101C900049C0823009F4B3C08091E80083FF8BC251
:101CA00080915B0290915C029A3008F084C2E92F27
:101CB000F0E0E85DFB4D0C94AD238A3009F48EC052
:101CC0008B3009F471C0893039F780915B02813221
:101CD00019F780915F0290916002009711F00297CE
:101CE000D9F68091E800877F8093E8008091E80032
:101CF00082FF38C09091F3008091F200029731F496
:101D00008091F100813011F0863021F48091F10052
:101D100080934E028091E8008B778093E8000E94C8
:101D20002B03BACF80915B02813A09F0B5CF809145
:101D3000E800877F8093E80080915F0290916002C5
:101D4000892B61F468E08FE492E070E00E94DD038B
:101D50008091E8008B778093E8009ECF60E090E070
:101D600080E0F3CF809159028111C0CF95CF80914F
:101D70005B02813A09F090CF80915F0290916002FE
:101D8000892B09F089CF8091E800877F8093E80054
:101D90008091E80080FFFCCF80912B018093F100BF
:101DA0008091E8008E77B9CF80915B02813209F093
:101DB00073CF80915F0290916002892B09F06CCF04
:101DC0008091E800877F8093E8000E942B03809138
:101DD0005D0280932B010E941F0E5ECF80915B02FB
:101DE000813209F059CF8091E800877F8093E80025
:101DF0000E942B0380915E0280934D024DCF809113
:101E00005B02813A09F048CF8091E800877F809398
:101E1000E8008091E80080FFFCCF80914D02BECFAA
:101E2000803899F0823809F0C6C180915F028F70C6
:101E3000873008F0C0C18093E9008091EB0085FBFA
:101E4000882780F91092E90006C08091570290918E
:101E50005802911182609091E800977F9093E8007A
:101E60008093F1001092F1008091E8008E779FC17D
:101E7000882309F48DC1823009F09DC180915D02F3
:101E8000811190C180915F028F702FEF280F263053
:101E900008F091C18093E9002091EB0020FF82C1FE
:101EA000933031F48091EB0080628093EB007AC133
:101EB0009091EB0090619093EB0021E030E001C045
:101EC000220F8A95EAF72093EA001092EA008091A7
:101ED000EB008860EACF81116EC110915D021F771F
:101EE0008091E3008078812B8093E3008091E8006B
:101EF000877F8093E8000E942B038091E80080FF99
:101F0000FCCF8091E30080688093E30082E01111B0
:101F100083E0809359024FC18058823008F04BC152
:101F200020915D0230915E022C3DE3E03E07A1F579
:101F300083E08A838AE289834FB7F894DE0113969F
:101F400020E03EE051E2E32FF0E050935700E491AF
:101F500020FF03C0E295EF703F5FEF708E2F90E09F
:101F6000EA30C0F0C7968D939D932F5F243159F7C7
:101F70004FBF8091E800877F8093E8006AE270E0BD
:101F8000CE0101960E94DD038091E8008B7780935B
:101F9000E80011C1C096E7CF80915F029091600286
:101FA000432F55274330510509F44AC078F5413095
:101FB000510509F47AC08BE590E0E9E1F4E04230A4
:101FC000510509F0F8C02091E800277F2093E80030
:101FD00020916102309162028217930708F49C01FC
:101FE00040E02115310509F065C0411163C08091C1
:101FF000E80082FDC9CF80915902882329F28530FB
:1020000019F28091E80083FFF2CFBECF4132510533
:1020100009F43CC04232510509F0CDC0833091052E
:1020200008F0C9C0FC01EE0FFF1FE359FE4F0190FD
:10203000F081E02D86599E4FDC018C9190E01AC012
:10204000332721303105D1F02115310561F02230DF
:10205000310509F0B0C0E6E8F4E0E4918E2F90E09D
:10206000E6E8F4E007C0ECEBF4E0E4918E2F90E0BA
:10207000ECEBF4E0009709F49EC0A5CFECEAF4E0A5
:10208000E4918E2F90E0ECEAF4E0F4CF83309105F8
:1020900008F091C0880F991FFC01ED58FE4F019088
:1020A000F081E02D89E090E08ECF82E190E0E4E7DE
:1020B000F4E089CF80915902882309F465CF8530F7
:1020C00009F462CF8091E80083FD5ECF8091E80043
:1020D00082FD8DCF8091E80080FF83CF9091F30047
:1020E0008091F2002115310519F08830910550F0EA
:1020F00041E0089709F040E08091E8008E778093F6
:10210000E8006FCF44914093F1003196215031099E
:102110000196E8CF803809F04EC08091E800877FB3
:102120008093E80080915A028093F1009DCE811146
:1021300042C010915D021230F0F58091E800877F77
:102140008093E80010935A020E942B03112311F090
:1021500084E005C08091E30087FDFACF81E08093A1
:10216000590242E061EC81E00E944A0342E261ECE4
:1021700084E00E944A0342E261EC82E00E944A034A
:1021800042E260EC83E00E944A038091590213C04E
:1021900080915D02813079F481E0933009F080E034
:1021A000809358021092E9008091E800877F809325
:1021B000E8000E942B038091E80083FF0AC0809111
:1021C000E800877F8093E8008091EB008062809335
:1021D000EB00AA960FB6F894DEBF0FBECDBFDF911D
:1021E000CF911F910895882321F00E94ED070C9450
:1021F000640D0895882339F09091E201982B909313
:10220000E2010C94640D0895882309F452C08238C9
:1022100071F40E94810981FF4CC089E30E9401088A
:102220000E94640D89E30E94F4070C94640D8338C6
:1022300059F40E94810980FF3CC083E50E94010897
:102240000E94640D83E5EFCF843859F40E94810920
:1022500082FF2FC087E40E9401080E94640D87E47A
:10226000E2CF9CEF980F913AF0F290E2980F9830FD
:1022700050F4877091E001C0990F8A95EAF7892F91
:102280000E94ED07D2CF9BE5980F933020F490E0A9
:1022900080E00C947C0498E5980F973120F490E04E
:1022A00080E00C946604803F20F00E94B9040C94F6
:1022B0009204089569EE7EEF90E080E00E94FA2398
:1022C00060E082E090E00E94DC2360E083E090E048
:1022D0000E94DC231092E40160E084E090E00E9420
:1022E000DC2360E082E290E00E94DC2360E085E095
:1022F00090E00E94DC2360E086E090E00E94DC2316
:102300006FEF87E090E00E94DC2340E050E0BA01EC
:1023100088E090E00E94EE2360E08DE090E00E9473
:10232000DC2340E050E0BA0188E190E00E94EE2317
:1023300060E087E190E00E94DC2340E050E0BA01D9
:102340008CE190E00E94EE2370E060E080E290E09B
:102350000E94FA2340E050E0BA0188E190E00E9438
:10236000EE2380E00E94F6090E940E0A40E050E051
:10237000BA018FE090E00E94EE2340E050E0BA0105
:1023800083E190E00C94EE238B3109F46FC040F5AB
:102390008B3071F078F4863009F451C020F4853028
:1023A00059F180E00895873009F452C08830C9F7A8
:1023B00081E00895803109F467C068F48E3089F7B0
:1023C00090913D02892F8B7F92FF846080933D0224
:1023D00082FD56C0EDCF863159F3893149F3E1CF03
:1023E0008A3251F1B0F4873209F120F48E31C8F20B
:1023F0008D5156C08932A9F60E941F0E2FEF84E33B
:102400009CE0215080409040E1F700C000000E9415
:10241000FB08833440F48A3308F041C0853331F03F
:10242000883331F2BECF833409F0BBCF81E00E9404
:102430001B0E0E941F0EBCCF0E945A11B9CF809173
:102440003D02807F80933D0281E080933C020895AD
:1024500090913D02892F8E7F90FF816080933D0295
:1024600080FDA6CF817F80933D02A2CF90913D0257
:10247000892F8D7F91FF826080933D0281FF98CFED
:1024800080913D028160EFCF90913D02892F877F3F
:1024900093FF886080933D0283FDF2CF89CF8953FB
:1024A00091E001C0990F8A95EAF7892FC0CFCF93A9
:1024B000C82F882309F492C08238C1F40E94810990
:1024C00081FD8CC089E30E9401080E94640D2FEFFA
:1024D00081EE94E0215080409040E1F700C0000080
:1024E00089E30E94F407CF910C94640D8338A1F422
:1024F0000E94810980FD72C083E50E9401080E944C
:10250000640D2FEF81EE94E0215080409040E1F780
:1025100000C0000083E5E5CF8438A1F40E94810962
:1025200082FD5CC087E40E9401080E94640D2FEFC9
:1025300081EE94E0215080409040E1F700C000001F
:1025400087E4CFCF8CEF8C0F813A08F0BDC080912B
:102550003C028130F1F0882391F08230A9F1109291
:102560003C02EEE7F1E08191C81709F4E1C021E0F7
:10257000E438F207C1F78C2F0E940108B4CF809194
:10258000E201823271F78C2F0E94C411811126C0A2
:10259000E8CF8091E2018232B1F3C43171F038F4B6
:1025A000CB3049F0C03161F080E08170EFCFC932AB
:1025B00021F0C833C9F781E0F8CF10923C02F4CF84
:1025C00082E080933C02F7CFC93209F43FC0E8F4BF
:1025D000C431E1F128F4C73009F45BC0CF9108950C
:1025E00082EE8C0F8A30D0F7CD51C0938701C33073
:1025F00009F446C0B0F5C13009F43FC086E291E06D
:10260000C230B1F110928701E9CFC03509F454C04E
:10261000B8F48AE0CF3411F7E0918501F09186019A
:102620003097E1F22081082E000C990B820F911D4A
:102630008F3F910509F00CF443C08FEF8083CECF1C
:10264000C135E1F181E0C23539F3C8CF809187010E
:10265000882321F210928701109286011092850141
:10266000BDCFC53099F078F089E291E0C63051F6DF
:102670009093860180938501B1CF85E291E0F8CFF8
:1026800088E291E0F5CF87E291E0F2CF8AE291E033
:10269000EFCF81E08093250184E1809326018AE0D9
:1026A000809328018EE18093270188E080932A019E
:1026B00088E28093290192CF86EFAECF8FEFACCF27
:1026C00097FFBCCF10828ACF80E28C0F883068F4ED
:1026D000C77021E030E001C0220FCA95EAF780916F
:1026E000E201822B8093E201FECEEBE5EC0FE330BA
:1026F00040F4F0E0E45DFE4F808190E0CF910C94D7
:102700007C04E8E5EC0FE73150F4F0E0EE0FFF1F3A
:10271000E15DFE4F80819181CF910C946604C03FB2
:1027200008F45CCF8C2F0E94A905CF910C949204E1
:102730008C2F0E94F4070E94640D1DCF1F93CF932E
:10274000DF93182FD0E0C0E0893311F4C0E5D0E06A
:10275000812F0E945712209731F4812FDF91CF9162
:102760001F910C9404118FE99FE00197F1F700C0CD
:1027700000002197F0CF0F931F93CF93DF93C62FC5
:10278000D42F022FFC0182818823A1F0609365027F
:102790000E945A049093640280936302C77081E0A0
:1027A00001C0880FCA95EAF7DF91CF911F910F9171
:1027B0000C94FA1080916502681335C08091630211
:1027C000909164020E943F04883C910560F510E2FC
:1027D0001D0FCD17B9F080E28C0F883040F4C77020
:1027E00081E001C0880FCA95EAF70E94F310183003
:1027F00048F481E09D2F977001C0880F9A95EAF701
:102800000E94FA10802F0E949E13183098F4D770FF
:1028100081E001C0880FDA95EAF7DF91CF911F912F
:102820000F910C94F310C77081E001C0880FCA9516
:10283000EAF7F3CFDF91CF911F910F9108953F9267
:102840004F925F926F927F928F929F92AF92BF92C0
:10285000CF92DF92EF92FF920F931F93CF93DF936C
:1028600000D000D00F92CDB7DEB78C01FC01838180
:102870009481892B31F08081918189238F3F09F0E8
:102880003AC50F900F900F900F900F90DF91CF915E
:102890001F910F91FF90EF90DF90CF90BF90AF907E
:1028A0009F908F907F906F905F904F903F90089592
:1028B0000E94500AF82E682F89819A810E944D0843
:1028C00069817A818F2D0E94430A7C01F8018281FF
:1028D000882309F403C5970122513F452031310572
:1028E00008F0CFC48FEF93E00E94CE23FEEEEF0EF0
:1028F00057E0852E52E0952E8823A1F18091D801D2
:10290000877009F4BECFF8018281882309F4B9CF1A
:102910008091190282FDB5CF82E00F900F900F9049
:102920000F900F90DF91CF911F910F91FF90EF903B
:10293000DF90CF90BF90AF909F908F907F906F90DF
:102940005F904F903F900C94D70D811424E0920635
:10295000A9F2C4010E94CE23811101C0EA943FEF85
:10296000831A930AE110F1CF1C821B824424439402
:102970004AE0342E74018FEFE81AF80AC4010E946D
:10298000CE2389831A82882309F4B8CF9FEF980F4A
:10299000933000F58A83498292E0890E911CC70129
:1029A0000E94CE238B83882309F4A8CFFE013196A1
:1029B0007F01F70120812223E9F2213009F049C08B
:1029C00091818281913041F4F2E0EF0EF11C0E947E
:1029D0009E1309C04701EACF923049F422E0E20E8B
:1029E000F11C0E9457123FEFE31AF30AE2CF933033
:1029F00031F432E0E30EF11C0E940411F4CF943064
:102A000021F08FEFE81AF80AEECF92E0E90EF11C00
:102A100030E020E0B7016F5F7F4FF70141818053C5
:102A2000990B8A30910550F021503109E0F28FE97D
:102A30009FE00197F1F700C00000F6CF329EF00151
:102A4000339EF00D11249C012E0F3F1F842F7B011C
:102A5000E1CFE22FF0E0E754FE4F5490822F8695AD
:102A60008695869590E0FC01E755FE4F64902770AF
:102A7000712C022E02C0759467940A94E2F7E1E08B
:102A80006E227724FC01E756FE4FA490B12C022E53
:102A900002C0B594A7940A94E2F7F1E0AF22BB24F8
:102AA000FC01E757FE4FC490D12C02C0D594C794C7
:102AB0002A95E2F721E0C222DD246114710419F0A5
:102AC00081EE0E945712A114B10419F086EE0E9403
:102AD0005712852D0E949E13AB2819F086EE0E9496
:102AE0000411672819F081EE0E940411CD2809F421
:102AF0007ACF8CE26CCF81E00E94100E0E94C00D54
:102B0000FDCE81E00E94CB0DF9CF82E0F5CF95EFAD
:102B1000E9169CE5F90609F46CC008F466C027E2E2
:102B200045EE66EEF6EFEF16FCE5FF0609F4D2C3BC
:102B3000882309F4F1C31092650223E0E2162DE523
:102B4000F20608F05DC03AEFE3163CE5F30630F418
:102B5000C70182509C45449708F05EC00E94C40A99
:102B60009093190280931802E1E1EE16ECE5FE065F
:102B700009F436C108F0A4C029E0E2162CE5F206FB
:102B800009F41CC108F06DC085E0E8168CE5F80674
:102B900009F408C108F056C0E3E0EE16ECE5FE06C5
:102BA00009F4F6C008F0FAC080911802816022E0B2
:102BB000E2162CE5F20609F4EEC060911802F090DE
:102BC000190284E090E00E94DC236F2D82E290E005
:102BD0000E94DC230E941F0E91CE27E245EE65EE97
:102BE00079C326E241EE60EE75C327E245EE64EE5E
:102BF00071C326E241EE62EE6DC328E241E0EFCF01
:102C000081E6E8168DE5F80609F4A8CF95EAE916FD
:102C10009DE5F90609F4A2CF36E1E3163CE5F3069B
:102C200009F087C38091E2018A7A91E009F490E08B
:102C300090938401811102C189E20E9401080E94DF
:102C4000640D5CCE80911802806237E0E3163CE5AB
:102C5000F30609F4A0C008F4ADC0809118028064A6
:102C60009AC0809118028B7F9DE0E9169CE5F906D9
:102C700009F491C0B0F4809118028E7FFBE0EF164A
:102C8000FCE5FF0609F487C0809118028C602CE0F7
:102C9000E2162CE5F20608F47EC0809118028D7FC2
:102CA0007AC0809118028F7E3FE0E3163CE5F30680
:102CB00009F471C008F488C0809118028F7D6BC040
:102CC0009DEFE9169CE5F90609F486C078F5F5E173
:102CD000EF16FCE5FF0609F491C0A0F480911802FC
:102CE000837F33E1E3163CE5F30609F454C008F4AE
:102CF0007BC00E941F0E90911802892F97FB87F9C5
:102D0000805849C09BEFE9169CE5F90609F44EC0CE
:102D100008F05EC0809119028160FAEFEF16FCE5C1
:102D2000FF0609F04ACF8093190247CF21E0E2164F
:102D30002DE5F20609F46EC0B8F48FEFE8168CE5C5
:102D4000F80609F457C0809119028360E1149DE5EB
:102D5000F90648F380911902982F909591708E7F13
:102D6000892B90FB81F9DFCFE1E6EE16EDE5FE065B
:102D700009F456C0F5EAEF16FDE5FF0609F457C061
:102D800022E0E2162DE5F20609F017CF60E043C01D
:102D9000809118028260809318020FCF80911802F0
:102DA0008460F9CF809118028860F5CF8091190274
:102DB0008260B9CF809118028061EDCF0E941F0E12
:102DC000809118028068E7CF80911802877FE3CF57
:102DD000809119028E7FA7CF809119028D7FA3CF9A
:102DE000809118028F7BD7CF0E941F0E809118020E
:102DF0008F77D1CF809119028C7F95CF8091180267
:102E000082FB992790F921E0922790FB82F990FBB1
:102E100083F9C1CF61E08EE090E00E94DC23CDCE4B
:102E200090911802892F8F7E94FF8061B4CF90918A
:102E30001802892F8E7F90FF8160ADCF85E3FDCE94
:102E400085E374C20E941F0E8FEF94E3ECE0815083
:102E50009040E040E1F700C000000E94FB0881E0E4
:102E60008EC280E08CC2C7010E942408D82E98C26E
:102E70002F2D2F70C22E8F2D807F19F0C29490EFCE
:102E8000C922DD20B9F0CC2069F080E28E0D8830B7
:102E900010F0811009C08091E201C82AC092E201BD
:102EA0000E94640D8E2D4DC08091E101C82AC09210
:102EB000E101F6CF8E2D0E940411CC2009F443C00D
:102EC00080E28E0D883010F0811004C08C2D0E949D
:102ED000ED0706C0C0948091E101C822C092E101D3
:102EE0000E94640D30C03F2D3F70C32E8F2D807F18
:102EF000803219F0C29480EFC822882089F081E0E6
:102F0000881609F47FC0DD2009F489C0BB2009F4CC
:102F10007FC0F801858180FFC5CF8F70858378C021
:102F20002091190222FF4BC0DD2009F442C0CC20C1
:102F300039F08091E201C82AC092E2010E94640D3A
:102F400080E00E945712292D2850330B2430310580
:102F500010F40E948109AA2009F493CC8091D80131
:102F600080FD8FCCF80112828595859585950E940C
:102F7000100EC8010E941F148091D8018595859577
:102F800085950F900F900F900F900F90DF91CF913C
:102F90001F910F91FF90EF90DF90CF90BF90AF9077
:102FA0009F908F907F906F905F904F903F900C9488
:102FB000CB0D80E00E940411CC2029F287CFDD20C8
:102FC000A1F09091E3018C2D892BB11003C00E94D8
:102FD000FA10B9CFE1E0BE12FACF22FDB4CF9817B4
:102FE00009F4B1CF8093E301AECFB11006C00E94C7
:102FF000E7078C2D0E94F310A6CFF1E0BF1609F46D
:10300000A2CFF5CFDD2031F025E02B1508F49BCFC2
:103010008C2DDDCF34E03B1508F495CFEACFBB20F3
:1030200041F3F9E38F1209C02FEF37EE83E021500F
:1030300030408040E1F700C000008E2D0E94041156
:1030400082CF8F2D86958695837061F0813009F04F
:103050007ACFC7019370D11002C090E080E00E9447
:10306000660471CFC7019370D11002C090E080E078
:103070000E947C0468CF8E2DDD2029F00E94A905D6
:103080000E94920460CF0E94B904FACF8F2D837002
:1030900091F5D11058CF4E2D429546954770440F6B
:1030A000440F8E2D8F70042E01C0880F0A94EAF70A
:1030B0002E2D2071E4FE07C02FE030E001C0220F6A
:1030C0004A95EAF720953F2D369536953370323084
:1030D00069F050F44091E401313029F0822B8423CF
:1030E0000E941B0E30CF842B822BFACF282B80918D
:1030F000E4018227F5CF8695DD2011F08F2D8170B8
:10310000882309F420CF4E2D429546954770440FF1
:10311000440F8E2D8F70042E01C0880F0A94EAF799
:103120002E2D2071E4FE07C02FE030E001C0220FF9
:103130004A95EAF720953F2D369536953370323013
:1031400069F050F440916602313029F0822B8423DB
:103150000E94BC0DF8CE842B822BFACF282B8091B5
:1031600066028227F5CF9F2D9F70F92EDD2029F072
:10317000892F0E94100E8E2D2ACF8E2D0E94F310C3
:103180008F2D0E94CB0DDFCE8E2DE2EF8E16B1F18A
:10319000E81570F0F0EF8F16D1F021EF821691F064
:1031A000DD2009F45EC0B1107DCE8F2D8F712AC055
:1031B00033EF831651F194EF8912F2CF8091190207
:1031C00082FF2FC08F2D8F71DD20D9F21BC0DD2033
:1031D00081F0E4E0EB1508F4B6CE2F2D2F7181E0DD
:1031E00090E001C0880F2A95EAF79091660289273E
:1031F000AFCFF5E0FB1508F4A6CEEFCF8F2D8F7182
:10320000D110BFCF0E94100E9ECE80E0DD2009F4C9
:103210009FCF9F2D9F7181E001C0880F9A95EAF79B
:1032200097CFDD2099F02F2D2F71F22E822F0E9443
:10323000100E8091190282FD07C038E0F39EC00194
:10324000112483608093D8018F2DDCCF81E00E9410
:10325000D70D81E08B1508F076CE82E00E94D70D65
:1032600072CEBB2059F0893309F0E7CE9FEFE7EE2D
:10327000F3E09150E040F040E1F7DDCE8F2D8F710B
:1032800080CFF0E1EF16FFE5FF0609F434CC21E131
:10329000E2162FE5F20609F438CC93EFE9169CE527
:1032A000F90609F49ECC08F032CCF8EDEF16FCE5F7
:1032B000FF0609F492CC29EDE2162CE5F20609F49A
:1032C0009CCC37EDE3163CE5F30609F031CC26E261
:1032D00041EE61EEC8010E94BB1310CB30E1E31652
:1032E0003FE5F30609F40DCC91E1E9169FE5F906F7
:1032F000A1F682E007CC85E0DE01119601900D92E7
:103300008A95E1F7F801228189819A812111D0CA39
:103310000E942408F82ED4CAF6E1EF16FCE5FF0659
:1033200081F58091840181118BCD89E20E94F4079F
:1033300086CC2AE5E2162DE5F20609F490CD68F474
:10334000E1148CE5F80609F47DCD9EEDE9169CE5C7
:10335000F906B9F40E945A11D1CAEBE5EE16EDE573
:10336000FE0609F47ECDFCE5EF16FDE5FF0649F407
:103370008091190282FB882780F991E089270E94B9
:10338000F30DF8018281E080F180882309F46BCD90
:10339000C7010E94500AD82E682FC7010E944D080D
:1033A000B7018D2D0E94430A0E945F067C01882E82
:1033B000F801D280B580B2943FE0B3228091D80169
:1033C0008770C1F0AD2CDD20B1F08F2D807F80346F
:1033D00021F080E28E0D883068F08091190282FD24
:1033E00009C082E00E94D70D8091D8018770AA247D
:1033F000A3948111A12C9F2C92942FE09222FBE0A8
:10340000F91508F4A0CDE92DF0E0EE5CFB4D0C942D
:10341000AD231F93CF93DF938091A501807FA9F403
:103420008091A201882389F08091D701D091A601D3
:103430006091A0017091A101A091A301B091A4019C
:10344000C62FC72316E0D81304C0DF91CF911F9178
:10345000089590E0109711F0CF3F19F4019687700E
:10346000F2CF189F9001199F300D1124F901E955F1
:10347000FE4F41814713F2CF40814613EFCF428187
:103480004111ECCF438154814A1B5B0B483C5105F1
:1034900028F78091A5018F7080618093A501F901C3
:1034A000E455FE4F80818F708061808380EA91E0D7
:1034B0000E941F14DF91CF911F910C941A08AF92B4
:1034C000BF92CF92DF92EF92FF920F931F93CF9311
:1034D000DF93CDB7DEB761970FB6F894DEBF0FBEAE
:1034E000CDBF8C0185E0F801DE011D9601900D92A3
:1034F0008A95E1F7F801E28080EAA82E81E0B82EF3
:103500006091A3017091A4016115710509F432C1A4
:103510009091A0014091A101892F84238F3F09F44C
:1035200029C120813181C380D480F090A201F601AD
:10353000E61BF70BFF2009F4E8C08091A501582F86
:10354000507FE83CF10508F0ABC0511177C0FE2C6C
:10355000431321C092131FC0E1101DC08F70806102
:103560008093A501C5010E941F148091A501F80157
:1035700085838F2D61960FB6F894DEBF0FBECDBF49
:10358000DF91CF911F910F91FF90EF90DF90CF903F
:10359000BF90AF900895CD2829F0822F83238F3FCD
:1035A00009F003C180E0F82FF170DF2E80FF3CC0EE
:1035B0008091D7014091A60156E0841315C02D8754
:1035C0003E878D859E850E947F0A292F22952F7028
:1035D0002230F0F0243018F59F70F1F0F801958159
:1035E000907FD1F4D12C1EC090E0589FF001599FDC
:1035F000F00D1124E955FE4F6181361306C060813C
:10360000261303C06281E6120FC001968770D5CFE2
:103610009F7011F0882331F3805E883018F3C80161
:103620000E941F14FD2CA5CFEE2009F4A2CF80919B
:10363000A50181608093A501F12C9BCF431306C0A7
:10364000921304C0F801EE2009F479C0C8010E9469
:103650008B0A882309F1EE20F9F08091A5018032D0
:1036600070F02091A0013091A10138872F83198635
:10367000DB86CA868C87CE0107960E941F1486E0DF
:10368000F801A0EAB1E001900D928A95E1F70E945D
:10369000091AFF24F3946DCFC8010E941F14F9CFBB
:1036A00051110AC080EA91E00E941F1486E0F501E2
:1036B00011928A95E9F7C0CF43130FC092130DC042
:1036C000E1100BC0F8018583C8010E941F1486E039
:1036D000F50111928A95E9F74CCFC8010E948B0A37
:1036E0008823D1F2EE20C1F28091A501803238F218
:1036F0002091A0013091A1013A8329831B82DD82B0
:10370000CC828E83CE010196B8CFE83CF105F8F665
:10371000FE2CEE2009F243131FC092131DC08091AE
:10372000A50180FD10C0982F907F69F0F801858376
:10373000903F31F0982F907F905F8F70892B858319
:10374000C8010E941F1486E0F801A0EAB1E00190D0
:103750000D928A95E1F70DCFC8010E948B0A811165
:103760008ECF8091A50181608093A501C8010E9440
:103770001F14FFCEEE2009F48FCFC8010E948B0AE0
:10378000F82E882309F488CF86E0F801A0EAB1E09A
:1037900001900D928A95E1F78091A0019091A1018D
:1037A0000E947F0A0E94091AE4CE81E08E25FBCE9A
:1037B0001F93CF93DF93CDB7DEB767970FB6F8941B
:1037C000DEBF0FBECDBF4B8B5C8B6D8B7E8B8F8B2B
:1037D00061111092E1011A8A198A85E0FE0173963F
:1037E000DE011D9601900D928A95E1F786E0FE01BB
:1037F0003D96DE01179601900D928A95E1F7CE0174
:1038000007960E945F1A882389F016E08091D701FD
:103810009091A601891349C067960FB6F894DEBF50
:103820000FBECDBFDF91CF911F91089586E0FE01BD
:103830003796DE01119601900D928A95E1F78A85FF
:103840009B85892B11F38F81988589238F3FE9F21E
:103850002091A60130E0C901019687709927409117
:10386000D7014817190671F40E941F0E1092A60185
:103870001092D70186E0E0EAF1E0DF011D928A951F
:10388000E9F7C3CF96E0929FD001939FB00D11242A
:10389000A955BE4FFE01319601900D929A95E1F720
:1038A0008093A6010E941A08B0CF819FC001112405
:1038B00089559E4F0E945F1A882309F4ADCF8091ED
:1038C000D70190E00196877099278093D7019ECF0A
:1038D0001F920F920FB60F9211242F933F934F9385
:1038E0005F936F937F938F939F93AF93BF93CF9388
:1038F000DF93EF93FF93D091E900DF708091EC00AC
:10390000C82FC17080FDC0E81092E9008091F000DE
:10391000877F8093F00078940E942A0E1092E9002D
:103920008091F00088608093F000CD2BCF70C09321
:10393000E900FF91EF91DF91CF91BF91AF919F91FE
:103940008F917F916F915F914F913F912F910F9048
:103950000FBE0F901F9018951F920F920FB60F92E7
:1039600011242F933F934F935F936F937F938F9384
:103970009F93AF93BF93EF93FF938091E10082FFFA
:1039800009C08091E20082FF05C08091E1008B7F39
:103990008093E1008091DA0080FF24C08091D800FC
:1039A00080FF20C08091DA008E7F8093DA008091C2
:1039B000D90080FF9DC080E189BD82E189BD09B445
:1039C00000FEFDCF81E08093590280914C0281116D
:1039D00009C00E94B1020E947C038091E2008460D1
:1039E0008093E2008091E10080FF17C08091E200A7
:1039F00080FF13C08091E2008E7F8093E20080916F
:103A0000E20080618093E2008091D8008062809320
:103A1000D80019BC85E0809359028091E10084FFB1
:103A20002BC08091E20084FF27C080E189BD82E144
:103A300089BD89B5982F917080FFFBCF8091D80008
:103A40008F7D8093D8008091E1008F7E8093E1008C
:103A50008091E2008F7E8093E2008091E20081609D
:103A60008093E20080915A02882309F447C084E0E1
:103A700080935902809159028091E10083FF27C011
:103A80008091E20083FF23C08091E100877F8093D3
:103A9000E10082E08093590210925A028091E10085
:103AA0008E7F8093E1008091E2008E7F8093E20020
:103AB0008091E20080618093E20042E060E080E07B
:103AC0000E944A038091F00088608093F000FF918B
:103AD000EF91BF91AF919F918F917F916F915F9186
:103AE0004F913F912F910F900FBE0F901F901895FF
:103AF00019BC1092590210924C0274CF8091E300CD
:103B000087FD93E090935902B5CF78941F921FB62A
:103B10001F9211248F939F93AF93BF93809145027F
:103B200090914602A0914702B09148020196A11DD2
:103B3000B11D8093450290934602A0934702B09333
:103B40004802BF91AF919F918F911F901FBE1F9010
:103B500018951F921FB61F9211248F939F93AF93B6
:103B6000BF9380914402811113C0809145029091CE
:103B70004602A0914702B09148024196A11DB11D95
:103B80008093450290934602A0934702B093480267
:103B9000BF91AF919F918F911F901FBE1F9018955D
:103BA000CDB7DEB7AA970FB6F894DEBF0FBECDBF74
:103BB00084B7877F84BF0FB6F894A8958091600082
:103BC000886180936000109260000FBE80E890E0F2
:103BD0000FB6F89480936100909361000FBE85B793
:103BE000806885BF85B7806885BF83E096E0909345
:103BF0007B0180937A010E94B1020E947C03809134
:103C0000E20084608093E2007894809159028823D6
:103C1000A1F01091E9001F709091EC00892F817044
:103C200090FD80E8182B1092E9008091E80083FD58
:103C30000E942A0E1F701093E90082E084BD93E079
:103C400095BD9AEF97BD80936E0010920802109276
:103C5000090210920A0210920B020E94AB0A811113
:103C600002C00E940E0A0E945E09809318010E9401
:103C70005E0981110E9436228091180180911801FD
:103C800095E0811190E09093170285E0891B809365
:103C900016020FE511E0A4E6EA2EA1E0FA2ED80103
:103CA0008D918D018F3F11F00E940506E016F106FF
:103CB000B1F704E611E0FAE6EF2EF1E0FF2EF8018D
:103CC00081918F018F3F11F00E940506E016F106E9
:103CD000B1F78AE0E5E2F2E0DF01282F1D922A9594
:103CE000E9F7ECE0F2E0DF011D928A95E9F790E058
:103CF00080E00E94D623893E9E4F21F40E94AB0AA9
:103D0000811102C00E945A1182E090E00E94CE23ED
:103D100080933D020E94C40A909319028093180276
:103D20000E94E10BEFE3FCE93197F1F700C00000DE
:103D30000E94E10B8091250280FF08C06FEF7FEFAA
:103D400090E080E00E94FA230E94FB0883E090E06C
:103D50000E94CE230E941B0E0E945E09811102C0A8
:103D60000E94392289E191E09093410280934002C0
:103D700048E1E42EF12C50E4652E60E1762E72E1EC
:103D8000B72EE0E1AE2E80915902853049F4809142
:103D90005902853009F4FEC00E941F0E0E9481095D
:103DA0000E94E10B81110E944E0405E212E0EAE15B
:103DB000F2E0D801D12CC12C4C2C8D90819188152A
:103DC00009F423C18825512C99249394982F992183
:103DD00009F416C10E945E09882399F059A24AA2EB
:103DE000892081E009F480E08BA30E945A0481605D
:103DF000782F9DA38CA349A15AA16BA18DA10E94EC
:103E0000D81BF601E65EFD4F8081982690820E94C5
:103E10005E0986E0E6E3F2E0DE01119601900D9284
:103E20008A95E1F78090380290903902D0903A025A
:103E3000C0903B02109238021092390210923A025E
:103E400010923B02882D892991F080913402909143
:103E500035020E943F04AC0190913002992309F48D
:103E6000EDC0809126018417150608F4F5C08D2D4C
:103E70008C2909F448C080913202909133020E944B
:103E80003F049C0190912F02992309F489C22135A6
:103E90003105C8F19F3F19F09F5F90932F02DD20FD
:103EA00059F00E9432059FEF1D140CF491E0899F98
:103EB000802D112480933A02CC2059F00E943205C3
:103EC0009FEF1C140CF491E0899F802D11248093A6
:103ED0003B0230913A023323B1F020913B0222237E
:103EE00091F045EB3403C0011124992309F4F3C088
:103EF00090933A0245EB240390011124332309F4F3
:103F0000EEC030933B028091380290913902892BA8
:103F100090913A02892B90913B02892B11F00E94DB
:103F2000920486E0FE013196A6E3B2E001900D9284
:103F30008A95E1F70E948109909124028913809368
:103F4000240280915902843009F01DCF83E08093D0
:103F5000E9008091E80082FF16CF8091E80090E0B0
:103F600085FF06C00E94D002882309F4BCC091E0FE
:103F70008091E8008B778093E800992309F403CFC0
:103F8000E981E150E33108F022C1F0E0E25CFB4D51
:103F90000C94AD2380915902843009F110924402AF
:103FA0000FB6F894A895E09260000FBE6092600092
:103FB00083B7817F846083BF83B7816083BF789438
:103FC000889583B78E7F83BF0FB6F894A8958091AC
:103FD0006000886180936000109260000FBE809145
:103FE0005802882309F4D3CE0E94E10BE5E2F2E007
:103FF00081918111B6C122E0EF32F207C9F7C7CE35
:104000005394990C46E05412E1CE8FEFC81AD80AA7
:104010009AE0C916D10409F0CFCE8FEF8EA38FA3FB
:1040200018A60E945A048160782F9AA789A74EA1EA
:104030005FA168A58AA50E94D81BE9CE2091250121
:10404000AAE02A9F900111242417350708F00FCF0A
:104050009F5F9093300202C09F3FD1F7882059F0B4
:104060000E946B059FEF18140CF491E0899F802D3E
:10407000112480933802992059F00E946B059FEF1C
:1040800019140CF491E0899F802D1124809339023A
:1040900030913802332309F4EACE209139022223E9
:1040A00009F4E5CE45EB3403C0011124992359F0FE
:1040B0009093380245EB240390011124332339F007
:1040C00030933902D4CE81E080933802F3CF81E07F
:1040D00080933902CCCE81E080933A020BCF81E00D
:1040E00080933B0210CF30E2C32ED12CCE0101963B
:1040F0004C018091E80085FD0AC08091E8008B7733
:104100008093E8000E94D002882399F330CF8091F9
:10411000F100D4018D934D01B1E0CB1AD10849F7DC
:1041200026CF1A8289E08B8311C08A81823009F4FC
:104130002EC1833091F1813009F049C00E944E04B4
:104140000E94B3236B837C838D839E83809159026D
:10415000843009F018CE1091E9001F709091EC00A6
:10416000892F817090FD80E8182B82E08093E90010
:104170008091E80080FF0DC050E040E060E270E018
:10418000CE0101960E9401038091E8008E77809312
:10419000E8001F701093E900F6CDFE0133968FE220
:1041A00092E0D8012D918D0121938A179B07C9F7C1
:1041B000CDCF8A81823059F46B817C818D819E8143
:1041C0000E94B32386E290E00E94DC23BFCF8FEFF2
:1041D0008983BCCF4C816B818A810E941D0A9827FC
:1041E000892798279E838D83B1CF0D811E8110274B
:1041F000012710278A81CB80BCE0CB9E600111246F
:10420000E8E78E9FC00CD11C11248C8190E0880FB0
:10421000991FC80ED91E612FC60187960E94DC2304
:10422000602FC6018896D0CF0E94A1098FCFAA82A5
:104230008DCF81E08A8389EF76CF0A811B81102799
:1042400001271027CE0101966C018C80DC01A80D9E
:10425000B11D4D01C801895F9D4F8C149D0409F467
:1042600075CF093FB1E01B0750F40E94CE23F60141
:1042700084830F5F1F4FBFEFCB1ADB0AEBCFD60152
:1042800014961C92F6CF0A811B8110270127102754
:10429000FE0131964F01CC80C00ED12ED11CC80139
:1042A000895F9D4FC016D10609F450CF093FF1E058
:1042B0001F0728F4D40114966C910E94DC23BFEFF1
:1042C0008B1A9B0A0F5F1F4FEACF0E9491093ECFC6
:1042D00084E08A833BCF0A811B81102701271027A6
:1042E000FE0131966F018C80CF01880D911D4C012C
:1042F000C8018796C814D90409F428CF003EA1E06C
:104300001A0750F40E94CE23F60184830F5F1F4FDB
:10431000BFEFCB1ADB0AECCFD60114961C92F6CF76
:104320000A811B81102701271027FE0131964F01BA
:10433000CC80C00ED12ED11CC8018796C016D106E4
:1043400009F404CF003EF1E01F0728F4D4011496CD
:104350006C910E94DC23BFEF8B1A9B0A0F5F1F4FEB
:10436000EBCF79BCB9BC09B400FEFDCF8091D80079
:104370008F7D8093D8008091E00082608093E00080
:104380008091E00081FDFCCF0E941F0E00CD86E2EF
:1043900090E00E94CE231B821C821D828E83D6CE8B
:1043A0002B30310508F078CDAECD8EE14A9B02C0AE
:1043B0008150E1F74A9BFECF08955A9880E28A9592
:1043C000F1F75A9A0895FC013BE03A95F1F798E02D
:1043D00020E080E031E040E14A95F1F7880F4A9B08
:1043E00002C08160232742E04A95F1F7000040E1D6
:1043F0004A95F1F7915079F790E19A95F1F799B1D3
:1044000032E03A95F1F7000040E14A95F1F792FB6E
:10441000992790F992272081920F90830895EF9227
:10442000FF920F931F93CF93DF930F92CDB7DEB719
:1044300019828C017C01E60EF11C0E151F0561F43A
:1044400081E09981911180E00F90DF91CF911F91D0
:104450000F91FF90EF9008950E94D521CE01019613
:104460000E94E321F80181938F01E7CF529A5A9A73
:10447000089552985A9AEA9AE9E6F0E080818F7C92
:10448000808308956150770B91E001C0990F6A9580
:10449000EAF720E031E0911108C0222391F05A9A06
:1044A00080E28A95F1F75A980895492F482339F008
:1044B0005A9A232740E24A95F1F79695ECCF5A98FD
:1044C000F9CF5A98EDCFFF920F931F93CF93DF93BD
:1044D000EC018C01060F111DC017D10731F4DF91DB
:1044E000CF911F910F91FF900895F9900E94DD21C7
:1044F00068E08F2D0E944222EFCF1F920F920FB6DD
:104500000F9211240F931F932F933F934F935F9319
:104510006F937F938F939F93AF93BF93EF93FF938B
:10452000CF93DF930F92CDB7DEB719820E94D521CA
:10453000CE0101960E94E321082F06950695069567
:10454000282F22952570902F9570290F922F937008
:1045500026952695920F982797708981982B09F0B8
:104560005CC0043008F059C080E18A95F1F75A9A8E
:10457000529A82E08A95F1F700C05A9888E0089F25
:1045800080011124D801A050BF4F1696ED91FC91E7
:1045900017973097A9F060915D0170915E011496B4
:1045A0002D913C911597260F371F11968D919C9157
:1045B0001297680F791F13964C9113978C91099558
:1045C000F801E050FF4F6381662351F020915D01B7
:1045D00030915E0184819581820F931F0E94632236
:1045E0000E94DD2180E18A95F1F75A9852985A9AF3
:1045F00080E18A95F1F7F801E050FF4F6081662372
:1046000051F020915D0130915E0181819281820F94
:10461000931F0E940F220E94D5210F90DF91CF910E
:10462000FF91EF91BF91AF919F918F917F916F918A
:104630005F914F913F912F911F910F910F900FBE5E
:104640000F901F9018950F931F93CF93DF93EC015A
:1046500004970CF04CC0F894529A5A9885E08A95C9
:10466000F1F700009C2F969595708C2F8570980F10
:10467000892F83709695969523E0CC0FDD1F2A95A0
:10468000E1F7980F8E01092B0E94DD2100C068E040
:10469000802F0E94422280E18A95F1F752985A9A1F
:1046A0004A9B1EC087E090E04A991CC0FE01E05082
:1046B000FF4F63816623F9F020915D0130915E0127
:1046C00084819581820F931F0E940F22811113C054
:1046D000529A5A9A7894DF91CF911F910F91089531
:1046E00000C0DECF019729F4529A5A9A789480E05C
:1046F000F2CF00C0D9CF0E94D52180E28A95F1F790
:104700005A98529A80E18A95F1F7C050DF4F68813C
:10471000662351F020915D0130915E0189819A817B
:10472000820F931F0E9463220E94DD21789481E012
:10473000D2CF97FB072E16F4009407D077FD09D04F
:104740000E94BA2307FC05D03EF4909581959F4FB7
:104750000895709561957F4F0895EE0FFF1F0590A6
:10476000F491E02D099469279627692778278727F0
:1047700078270895AA1BBB1B51E107C0AA1FBB1FC6
:10478000A617B70710F0A61BB70B881F991F5A95DD
:10479000A9F780959095BC01CD010895F999FECFB8
:1047A00092BD81BDF89A992780B50895A8E1B0E03F
:1047B00042E050E00C940224262FF999FECF92BDDE
:1047C00081BDF89A019700B4021639F01FBA20BDD6
:1047D0000FB6F894FA9AF99A0FBE08950396272F08
:1047E0000E94DD230E94DC23252F0E94DD23242F3D
:1047F0000C94DD230196272F0E94DD230C94DC23EB
:10480000DC01CB01FC01F999FECF06C0F2BDE1BD90
:10481000F89A319600B40D9241505040B8F708957F
:10482000FB01DC0104C08D910190801921F44150FD
:104830005040C8F7881B990B0895FB01DC0102C0AA
:1048400001900D9241505040D8F70895F894FFCF51
:10485000100F380FDB10380FDB106B0F8C0FDB10D5
:104860008A109710381738177317731721183B18C9
:10487000A317A3174618B318C418C418912095207D
:10488000D920EA20F5201421E720E720E720E720BF
:10489000E720172119211D214321652168216B2162
:0248A000902165
:1048A20000000001000000000000000501000000FF
:1048B2000406000000000000013C04CE08AD08A977
:1048C20008A5083B0401141E0A280801818283E21C
:1048D20000E900EA00B500B600B700CD008301CCC4
:1048E200008A019201940121022302240225022658
:1048F2000227022A02B300B4006F007000F901948B
:104902006697C634F4F5F6F7313340227B49012726
:0A49120001AC002B0444046404000F
:00000001FF
